:100000000C94D0060C9417070C9417070C94170740
:100010000C9417070C9417070C9417070C941707E8
:100020000C9417070C9417070C942A2C0C94FC2C96
:100030000C9484220C9417070C9417070C94170740
:100040000C9417070C9417070C9417070C941707B8
:100050000C9417070C94EC220C9417070C941707B8
:100060000C9417070C9417070C9417070C94170798
:100070000C9417070C9417070C9417070C94170788
:100080000C9417070C9417070C9417070C94170778
:100090000C9417070C9417070C9417070C94170768
:1000A0000C9417070C9417070C94170784088608FC
:1000B000910888088A088C088E089008930895088B
:1000C0009708A20899089B089D089F08A108A40802
:1000D000F717F7172918291867188718101A101A10
:1000E000C918101A6A196A19DC19E519101A091ABF
:1000F0007719771977197719771977197719771980
:10010000771977197719771977197719771977196F
:10011000881996199D19A419AE199F1A9F1AB11A18
:10012000B11AA81AB11AB11AB11A9F1A9F1AAD1AA8
:10013000B11AB11AAD1A692D902D822E902D822EF2
:10014000DC2DFF2D822E552E642E29001E001F004F
:100150002000210022002300240025002600270083
:100160002D002E0031002B0014001A00080015008D
:1001700017001C0018000C00120013002F003000A4
:100180002A00E00004001600070009000A000B0026
:100190000D000E000F003300340028000000E100C5
:1001A0001D001B000600190005001100100036009C
:1001B00037003800E10001510000E000E200E300F8
:1001C0000000000000002C00000000000000E7001C
:1001D000E600E400350029003A003B003C003D0009
:1001E0003E003F0040004100420043004400450003
:1001F00049003900C25CC35C01000100010001003C
:1002000001004600470048005200010001000100C3
:10021000AA00A900A80001000100550054004A00EE
:100220004B0050004F00010000000100AC00AE0088
:10023000AB00BF5CBE5C570056004D004E00510045
:1002400001000100000001000100010000000000A9
:10025000000001000000000000000100010001009A
:100260004C0001000100010001000100010001003B
:100270000100010001000100010001000100010076
:100280000100010001000100010001000100010066
:100290000100010001000100010001000100010056
:1002A0000100010001000100010001000100010046
:1002B0000100010000000100010001000100010037
:1002C0000100010001000100010001000100010026
:1002D000000001000100010000000000000001001A
:1002E0000000000000000100010001000100010009
:1002F00001000100010001000100010001000100F6
:1003000001000100010001000100010001000100E5
:1003100001000100010001000100010001000100D5
:1003200001000100010001000100010001000100C5
:1003300001000100010001000100010001000100B5
:1003400000000100010001000100010001000100A6
:100350000100010001000100010001000000010096
:10036000010001000000000000000100000000008A
:100370000000010001000100010001000100010076
:100380000100010001000100010001000100010065
:100390000100010001000100010001000100010055
:1003A0000100010001000100010001000100010045
:1003B0000100010001000100010001000100010035
:1003C0000100010001000100010001000000010026
:1003D0000100010001000100010001000100010015
:1003E0000100010001000100000001000100010006
:1003F00000000000000001000000000000000100FB
:1004000001000100010001000100010001000100E4
:1004100001000100010001000100010001000100D4
:1004200001000100010001000100010001000100C4
:1004300001000100010001000100010001000100B4
:1004400001000100010001000100010001000100A4
:100450000100010001000100000001000100010095
:100460000100010001000100010001000100010084
:100470000100010000000100010001000000000077
:100480000000010000000000000001000100010068
:100490000100010001000100010001000100010054
:1004A0000100010001000100010001000100010044
:1004B0000100010001000100010001000100010034
:1004C0000100010001000100010001000100010024
:1004D0000100010001000100010001000100010014
:1004E0000100010000000100010001000100010005
:1004F00001000100010001000100010001000100F4
:1005000000000100010001000000000000000100E7
:1005100000000000000001000100010001000100D6
:1005200001000100010001000100010001000100C3
:1005300001000100010001000100010001000100B3
:1005400001000100010001000100010001000100A3
:100550000100010001000100010001000100010093
:100560000100010001000100010001000100010083
:100570000000010001000100010001000100010074
:100580000100010001000100010001000000010064
:100590000100010000000000000001000000000058
:1005A0000000010001000100010001000100010044
:1005B0000100010001000100010001000100010033
:1005C0000100010001000100010001000100010023
:1005D0000100010001000100010001000100010013
:1005E0000100010001000100010001000100010003
:1005F00001000100010001000100010000000100F4
:1006000001000100010001000100010001000100E2
:1006100001000100010001000000010001000100D3
:1006200000000000000001000000000000000100C8
:1006300001000100010001000100010001000100B2
:1006400001000100010001000100010001000100A2
:100650000100010001000100010001000100010092
:100660000100010001000100010001000100010082
:100670000100010001000100010001000100010072
:100680000100010001000100000001000100010063
:100690000100010001000100010001000100010052
:1006A0000100010000000100010001000000000045
:1006B0000000010000000000000001000100010036
:1006C0000100010001000100010001000100010022
:1006D0000100010001000100010001000100010012
:1006E0000100010001000100010001000100010002
:1006F00001000100010001000100010001000100F2
:1007000001000100010001000100010001000100E1
:1007100001000100000001000100010001000100D2
:1007200001000100010001000100010001000100C1
:1007300000000100010001000000000000000100B5
:1007400000000000000001000100010001000100A4
:100750000100010001000100010001000100010091
:100760000100010001000100010001000100010081
:100770000100010001000100010001000100010071
:100780000100010001000100010001000100010061
:100790000100010001000100010001000100010051
:1007A0000000010001000100010001000100010042
:1007B0000100010001000100010001000000010032
:1007C0000100010000000000000001000000000026
:1007D0000000010001000100010001000100010012
:1007E0000100010001000100010001000100010001
:1007F00001000100010001000100010001000100F1
:1008000001000100010001000100010001000100E0
:1008100001000100010001000100010001000100D0
:1008200001000100010001000100010000000100C1
:1008300001000100010001000100010001000100B0
:1008400001000100010001000000010001000100A1
:100850000000000000000100000000000000010096
:100860000100010001000100010001000100010080
:100870000100010001000100010001000100010070
:100880000100010001000100010001000100010060
:100890000100010001000100010001000100010050
:1008A0000100010001000100010001000100010040
:1008B0000100010001000100000001000100010031
:1008C0000100010001000100010001000100010020
:1008D0000100010000000100010001000000000013
:1008E0000000010000000000000001000100010004
:1008F00001000100010001000100010001000100F0
:1009000001000100010001000100010001000100DF
:1009100001000100010001000100010001000100CF
:1009200001000100010001000100010001000100BF
:1009300001000100010001000100010001000100AF
:1009400001000100000001000100010001000100A0
:10095000010001000100010001000100010001008F
:100960000000010001000100000000000000010083
:100970000000000000000100010001000100010072
:10098000010001000100010001000100010001005F
:10099000010001000100010001000100010001004F
:1009A000010001000100010001000100010001003F
:1009B000010001000100010001000100010001002F
:1009C000010001000100010001000100010001001F
:1009D0000000010001000100010001000100010010
:1009E0000100010001000100010001000000010000
:1009F00001000100000000000000010000000000F4
:100A00000000010001000100010000047F3F1F649D
:100A10003214643214783C1E1E140A052223252643
:100A200028292A2C2D2F3032333536383A3B3D3E9B
:100A30004042434547494A4C4E5051535557595AE5
:100A40005C5E6062646668696B6D6F7173757779FF
:100A50007B7D7F81838587898A8C8E9092949698FE
:100A60009A9C9E9FA1A3A5A7A8AAACAEAFB1B3B410
:100A7000B6B8B9BBBCBEBFC1C2C3C5C6C7C9CACB65
:100A8000CCCDCED0D1D2D2D3D4D5D6D7D7D8D9D930
:100A9000DADADBDBDBDCDCDCDCDCDDDDDDDDDCDC99
:100AA000DCDCDCDBDBDBDADAD9D9D8D7D7D6D5D4B6
:100AB000D3D2D2D1D0CECDCCCBCAC9C7C6C5C3C282
:100AC000C1BFBEBCBBB9B8B6B4B3B1AFAEACAAA8D7
:100AD000A7A5A3A19F9E9C9A98969492908E8C8A8B
:100AE00089878583817F7D7B79777573716F6D6B66
:100AF0006968666462605E5C5A5957555351504E3E
:100B00004C4A4947454342403E3D3B3A38363533EF
:100B100032302F2D2C2A292826252322FFAA7F5563
:100B20004000000000000000000000010101010180
:100B30000101010102020202020202020303030395
:100B4000030303040404040405050505050606065D
:100B5000060607070707080808080909090A0A0A14
:100B60000B0B0B0C0C0C0D0D0D0E0E0E0F0F1010B1
:100B70001011111212131314141515161617171835
:100B80001819191A1A1B1C1C1D1D1E1F1F2021219C
:100B900022232324252526272828292A2B2C2C2DDF
:100BA0002E2F30313132333435363738393A3B3CF9
:100BB0003D3E3F404142434445464748494B4C4DEA
:100BC0004E4F50525354555758595A5C5D5E6061B0
:100BD00063646567686A6B6C6E6F7172747677793F
:100BE0007A7C7D7F8182848687898B8D8E9092949A
:100BF0009597999B9D9FA1A2A4A6A8AAACAEB0B2BE
:100C0000B4B6B9BBBDBFC1C3C5C8CACCCED0D3D59D
:100C1000D7DADCDEE1E3E6E8EAEDEFF2F4F7F9FC3F
:100C2000FF04033000000016034B0042004400366E
:100C30000058002000480048004B00420000000E11
:100C40000364007A0074006500630068000000041B
:100C500003090409023B00020100A0FA0904000094
:100C600001030101000921110100012240000705D3
:100C7000810308000A0904010001030000000921A2
:100C80001101000122C0000705820320000A1201A1
:100C9000100100000008EDFE606001000102030188
:100CA00005010902A10185020901A1000509190137
:100CB000290515002501950575018102950175032A
:100CC00081010501093009311581257F95027508DB
:100CD000810609381581257F950175088106050C67
:100CE0000A38021581257F950175088106C0C00567
:100CF000010980A10185031601002603001A810065
:100D00002A8300751095018100C0050C0901A1011D
:100D10008504160100269C021A01002A9C02751007
:100D200095018100C005010906A101850505071986
:100D3000E029E715002501950875018102050819CC
:100D4000012905950575019102950175039101052C
:100D500007190029EF1500250195F075018102C0E2
:100D600005010906A101050719E029E7150025017C
:100D70009508750181029501750881010508190121
:100D800029059505750191029501750391010507E6
:100D9000190029FF150026FF00950675088100C07F
:100DA00011241FBECFEFDAE0DEBFCDBF04B603FED5
:100DB00027C080919F029091A002A091A102B091C2
:100DC000A2028730904BA740B04BD1F410929F0203
:100DD0001092A0021092A1021092A20214BE84B737
:100DE000877F84BF0FB6F894A895809160008861D2
:100DF00080936000109260000FBEE0E0F8E3099578
:100E000011E0A0E0B1E0EEE0FFE502C005900D9238
:100E1000AC35B107D9F722E0ACE5B1E001C01D92D5
:100E2000AF39B207E1F70E944C290C94852F0C943E
:100E300000000C9420070C94210780E090E00895B6
:100E40000895089581FF02C0269A01C026982E9821
:100E5000089581E0089581E008950C942B071F9375
:100E6000CF93DF9300D000D01F92CDB7DEB7498378
:100E70005A832091960189819A81211112C066239B
:100E800049F00E94C41F182F682F89819A810E94FF
:100E9000691F03C00E94981F182F69817A81812FD2
:100EA00004C00E94C41F69817A810F900F900F9037
:100EB0000F900F90DF91CF911F910C94120AFC01BB
:100EC000408151816281738184810C942F070C943D
:100ED0001B07E82FE295EF70F0E032A1282F2F706A
:100EE00081E090E001C0880F2A95EAF7809583237E
:100EF00082A30895CF92DF92EF92FF92843030F474
:100F0000811105C090918000977F04C083E090918B
:100F10008000986090938000282F30E0AFEFBFEF03
:100F20000E94162F23E030E040E050E00E94EE2EB9
:100F30002C3784E138074105510530F4C90169E0D7
:100F400070E00E94C62E29C0DA01C9018A50974D6F
:100F5000AF4FBF4F6627782F892F9A2F25EF38E2A2
:100F600041E050E00E94EE2E69017A01CA01B90108
:100F70000E94B62E9B01AC01C701B6010E94B62E9D
:100F8000BB27A92F982F872F009721E0A207B10533
:100F900011F0BC0102C06FEF7FEF70938D00609382
:100FA0008C00FF90EF90DF90CF900895279A87E311
:100FB0000E9469078AE08093800089E18093810024
:100FC0008FEF9FEF90938700809386000C94CC2640
:100FD0000E94F420811102C00E9481210E94D60744
:100FE0000C9419070C9422070C94F20708950E94A0
:100FF0008F1A0E94F6072FEF84E39CE02150804077
:101000009040E1F700C000000C9412230F931F934F
:10101000CF93DF938C010E945F07EC01B8010E941F
:101020002D07882309F4F7C1B801CE010E9460148E
:10103000882309F4F0C1CA3CFCE5DF0741F4F8015C
:101040008281882309F4E7C10E949E10E4C1CB3C51
:101050008CE5D80708F012C1C33C9CE5D90761F4C0
:10106000F8018281882309F4D6C10E94442082724B
:10107000E1F00E94C912CFC1C43CECE5DE07C0F02C
:10108000C63C9CE5D90709F4CAC008F0DCC0C43CE2
:10109000FCE5DF0709F0CBC0F8018281882309F461
:1010A000BAC10E944420827221F30E94BC12B3C1D3
:1010B000C531FCE5DF0708F07BC0C2308CE5D807FE
:1010C00008F452C0F8018281882309F454C00E94B8
:1010D000F420811102C00E9481210E94112190E020
:1010E0009093900280938F02FE01E350FC45E23121
:1010F000F10530F4EA5AFF4F80918F020C94102FC3
:1011000080918F02816027C0826025C0846023C0E7
:10111000806121C080621FC080641DC080681BC0C8
:101120008460886018C08E7F16C08D7F14C08B7F4E
:1011300012C08F7E10C08F7D0EC08F7B0CC08F774A
:101140000AC08B7F877F07C087FB222720F991E0A9
:10115000922790FB87F980938F0280918F020E94E3
:1011600015210E948F1A57C1C1159CE5D90751F06E
:10117000C130DC4579F0C801DF91CF911F910F910B
:101180000C942907F8018281882309F444C10E9444
:10119000F70741C1F8018281882309F43CC180919D
:1011A0002902982F909590FB80F98093290233C1F2
:1011B000C631FCE5DF0739F50E944420282FF801ED
:1011C00082814091100150911101882379F02A7A8F
:1011D00091E009F490E090935C01911102C069E202
:1011E00001C065E3CA010E94E8210AC080915C0148
:1011F000811102C069E201C065E3CA010E94F321C6
:101200000E94902008C1C23CDC4509F0B4CFF8012F
:101210008281882309F4FFC00E94D712FCC0F80124
:101220008281882309F4F7C00E946210F4C0C53C93
:10123000DC4509F0A0CFF8018281882309F4EBC0D6
:101240000E945510E8C0F8018281C83CFCE5DF0728
:1012500031F4882309F4DFC00E948010DCC0C93C4F
:10126000DC4530F4882309F4D6C00E947110D3C045
:10127000882309F4D0C00E948F10CDC0C13DECE599
:10128000DE0791F4F8018281882309F4C4C00E942A
:10129000D00E8F3028F00E94D00E843108F405CF94
:1012A0008FE00E94CC12B7C0C23DFCE5DF0708F01A
:1012B0005AC0CD3C8CE5D80739F4F80182818823E7
:1012C00009F4A9C081E0EDCFCE3C9CE5D907C0F47C
:1012D000CB3CECE5DE0741F4F8018281882309F478
:1012E0009AC00E94D80E97C0CC3CDC4509F043CF91
:1012F000F8018281882309F48EC00E94E90E8BC018
:10130000F8018281CF3CFCE5DF0771F4882309F402
:1013100082C00E94D00E863028F00E94D00E883005
:1013200008F4C3CE86E0BDCFC03DDC4570F4882311
:1013300009F471C00E94D00E823028F00E94D00EB5
:10134000853008F4B2CE82E0ACCF882309F463C0C4
:101350000E94D00E893028F00E94D00E8E3008F402
:10136000A4CE89E09ECFC53DECE5DE0739F4F80157
:101370008281882309F44FC083E293CFC63DFCE508
:10138000DF0740F5F8018281C33DFCE5DF0729F462
:10139000882309F440C088E184CFC43DDC4568F46B
:1013A0008823C9F10E94D00E853128F00E94D00E0A
:1013B000873108F47ACE85E174CF882361F10E94E9
:1013C000D00E893128F00E94D00E823208F46DCE02
:1013D00089E167CFCD3DECE5DE0741F4F80182817C
:1013E0008823C9F082E00E94ED2915C0CE3DFCE5BE
:1013F000DF0739F4F8018281882369F00E94812196
:101400000AC0CC3DDC4509F0B6CEF80182818823C4
:1014100011F080E0E8CF80E0DF91CF911F910F9134
:10142000089508959EE0799FF001112496E4899F24
:10143000E00DF11D1124E60FF11DEE0FFF1FE65B1D
:10144000FE4F859194910895880F991FFC01E65FE6
:10145000F54F859194910895CF93DF930E94120ADE
:101460000E941F0CEC01811521E5920708F042C093
:10147000811560E5960708F031C1883E910500F5B9
:10148000803E910508F0D7C1883A910570F4853AFD
:10149000910508F0A6C08130910509F4CCC108F48B
:1014A0007DC1049708F0C7C179C18F3B910508F44D
:1014B000A3C0803C910508F471C1805C9109FDC016
:1014C000C11580E3D80780F4C11590E2D90708F070
:1014D000F2C0C03FD10508F461C1CF3FD10511F082
:1014E00008F0A9C1D065A7C1C11520E4D20708F052
:1014F000F2C0E7C0811569E5960760F5C11588E57A
:10150000D80708F037C1C11594E5D90778F4C1159B
:1015100023E5D20708F013C1C11562E5D60708F02C
:10152000F8C0DC2FCC27C16FD06A85C1C11585E515
:10153000D80708F41AC1C11596E5D90708F02EC1DD
:101540008C2F0E949C0C8F71C82FD0E0DC2FCC27F1
:10155000D06271C18D3B2CE5920709F416C1F0F4FD
:10156000CB3B8CE5D80709F40AC108F00BC1C115C3
:101570002AE5D20708F012C18C2F8F700E949C0CB4
:1015800094E0D695C7959A95E1F7CF70D0E0DC2F1F
:10159000CC27D06A8F70806EC82B4DC1803C9C4593
:1015A00009F4F9C0C13C8CE5D80760F4CE3B9CE55A
:1015B000D90709F4EDC0CF3BDC4509F0EFC0C0E02E
:1015C000D2ED39C1CE0190568115904208F0E6C0A7
:1015D0008D2F8F710E949C0CDD27D0628F71D82BCC
:1015E0002AC1853A910509F4DCC0863A910509F0D3
:1015F000DBC0C2E8D0E41FC1883A910509F4D7C026
:10160000893A910509F4D6C08A3A910509F4D5C002
:101610008B3A910509F4D4C08C3A910509F4D3C0F2
:101620008B3B910509F4D2C08C3B910509F4D1C0E4
:101630008D3A910509F4D0C0803B910509F4CFC0E3
:101640008E3A910509F4CEC08F3A910509F4CDC0C8
:10165000813B910509F4CCC0823B910509F4CBC0D4
:10166000833B910509F4CAC0843B910509F4C9C0C4
:10167000853B910509F4C8C0863B910509F4C7C0B4
:10168000873B910509F4C6C0883B910509F4C5C0A4
:10169000893B910509F4C4C08D3B910509F4C3C091
:1016A0008E3B910509F4C2C08A3B910509F4C1C083
:1016B000C0E0D4E4C0C0CE019F700E94240AEC01B7
:1016C000BAC0CE019927D3FF03C0EC01D86CB3C0D8
:1016D000EC01D06CB0C0DF70D06AADC0837021E087
:1016E00030E002C0220F331F8A95E2F73C68CE013A
:1016F00074E0969587957A95E1F78370382BCF70D3
:10170000C695C69580E2C89FE0011124C22BD32B59
:1017100092C04C2F4695469590E2499FA001112416
:10172000C370DD2721E030E0C90102C0880F991F96
:10173000CA95E2F7EC01C42BD52BDC687CC04C2F9A
:101740004695469580E2489FA0011124C370DD278D
:1017500021E030E0C90102C0880F991FCA95E2F765
:10176000EC01C42BD52BDA6866C0DC2FCC27C46F04
:10177000D06A61C0DC2FCC27C06FD06A5CC0C0E0EB
:10178000D4ED59C0C0E0D5ED56C0C0E0D1ED53C096
:10179000C0E0D0ED50C0C0E0D3ED4DC0C0E0D0E01F
:1017A0004AC0C1E8D0E447C0C3E8D0E444C0C2EEB8
:1017B000D4E441C0C9EED4E43EC0CAEED4E43BC098
:1017C000C5EBD4E438C0C6EBD4E435C0C3EBD4E4F5
:1017D00032C0C4EBD4E42FC0C7EBD4E42CC0CCECB3
:1017E000D4E429C0CDECD4E426C0C3E8D5E423C0BA
:1017F000CAE8D5E420C0C2E9D5E41DC0C4E9D5E4F7
:101800001AC0C1E2D6E417C0C3E2D6E414C0C4E2F1
:10181000D6E411C0C5E2D6E40EC0C6E2D6E40BC0E1
:10182000C7E2D6E408C0CFE6D4E405C0C0E7D4E4FC
:1018300002C0CAE2D6E4CE01DF91CF91089582388A
:10184000910549F1B0F48133910509F458C048F489
:101850008932910509F44EC08A32910509F454C0C9
:1018600008958533910509F440C08933910599F0B5
:101870000895833E910529F138F4803E910591F059
:10188000823E9105A1F00895863E9105F9F0873ECC
:10189000910531F1089520918F0220FD3AC021FD7C
:1018A00038C0089580918F0280FD35C032C080918C
:1018B0008F0282FF32C080918F0284FD30C083EEA0
:1018C00039C080918F0282FD28C0F5CF80918F02B0
:1018D00083FF27C080918F0284FD21C087EE2AC03C
:1018E00080918F0283FD1DC0F5CF80918F0285FD11
:1018F0001AC01BC080918F0285FD17C014C0809153
:101900008F0286FD14C015C080918F0286FD11C024
:101910000EC080EE0FC089E30DC082EE0BC080E0E8
:1019200009C086EE07C089E205C085E303C08AE2EC
:1019300001C081E390E0089590918F0292FF0DC065
:10194000282F2871283019F4877F846006C0282F3B
:101950002471243011F48B7F886093FF0DC0282FF1
:101960002871283119F4877E846106C0282F2471DC
:10197000243111F48B7E886194FD877E0895E82FD1
:10198000F0E0EE0FFF1FE35AFE4F80819181089532
:101990000895A1E3B1E041E050E025E02A0F8D91E8
:1019A000E82FE295EF70F0E031A18F70BA0102C02C
:1019B000660F771F8A95E2F7CB01962F90959323B8
:1019C00091A392A1892B82A32A13E9CFA3E2B1E0CC
:1019D00041E050E02EE02A0F8D91E82FE295EF7064
:1019E000F0E031A18F70BA0102C0660F771F8A95AF
:1019F000E2F7CB01962F9095932391A392A1892B87
:101A000082A32A13E9CFE7E6F1E0ADE5B1E0119258
:101A100011921D921D9271E0E137F707C1F785E041
:101A20000E94AB0D0C94E8075F926F927F928F92A9
:101A30009F92AF92BF92CF92DF92EF92FF920F935D
:101A40001F93CF93DF9301E311E0A7E6B1E0612C90
:101A5000EE24E394F12C5D018D909C9011971196EA
:101A60001C921E92E80189918E01E82FE295EF7099
:101A7000F0E091A18F70A70101C0440F8A95EAF7A9
:101A8000892F842B81A382A1542E5094852182A377
:101A9000D0EADA95F1F783E2C82E81E0D82E80E013
:101AA00090E0E60179906E01272D22952F7030E0AD
:101AB000E90168A12D913C91119770E0D72DDF705D
:101AC00002C075956795DA95E2F760FD08C0B70129
:101AD000082E02C0660F771F0A94E2F702C060E08A
:101AE00070E0262B372B11963C932E9301968E3067
:101AF0009105B9F681A1D52DD823D1A382A1482B78
:101B000042A3129681E0F50120813181821693066D
:101B100009F480E0682AF1E0A137BF0709F09BCF04
:101B2000262D45E06DE571E087E691E00E94AC0D61
:101B30000E946707862DDF91CF911F910F91FF9033
:101B4000EF90DF90CF90BF90AF909F908F907F905D
:101B50006F905F9008950895FF920F931F93CF9316
:101B6000DF93F82E092F162FD72FC42F222349F0E9
:101B700081E0809373010E94B6229093720180935A
:101B80007101809173018823D9F080917101909146
:101B900072010E94C222069798F0EF2DF02FA12F1C
:101BA000BD2F80E090E04C2F50E08417950734F46F
:101BB000219131912D933D930196F7CF10927301AE
:101BC000DF91CF911F910F91FF900895CF92DF92F7
:101BD000EF92FF920F931F93CF93DF937B01282FF8
:101BE000382FE82FF0E0F11006C0EF5DF44F64915C
:101BF000762F862F7BC00F2D10E046E0649FC0013A
:101C00001124CFEFD0E0BE010E94C62EAB016BEADB
:101C10006403C001659F900D11248E0D911D8E0DE2
:101C2000911D982F990F890FBE01601B710B6E9F3C
:101C3000D0016F9FB00D7E9FB00D11249B2F8F9D03
:101C4000B0011124672F77277E01E61AF70AEE9E6E
:101C5000B001EF9E700DFE9E700D11246E01C81A2A
:101C6000D108C09E7001C19EF00CD09EF00C1124D2
:101C70000F2D1127C01BD10BCE9F8001CF9F100DC0
:101C8000DE9F100D1124812F4230510591F04CF44C
:101C900041155105E1F041305105B9F4822F272F4C
:101CA00016C04430510569F044F04630510579F0D2
:101CB0000CC0822F2B2F912F0AC02B2F932F872FF1
:101CC00006C08B2F922F212F02C08B2F972FE22F30
:101CD000F0E0EF5DF44F7491E82FF0E0EF5DF44F2A
:101CE0006491E92FF0E0EF5DF44F8491DF91CF91A3
:101CF0001F910F91FF90EF90DF90CF90089508957E
:101D0000CF93DF93762FE901682F842F0E94E60D91
:101D1000798368838A83DF91CF91089580915A02F5
:101D2000282F269530E02115310519F48170826045
:101D300005C02532310524F08170886480935A02F1
:101D4000089588E090E00C94452FCF93DF9300D066
:101D500000D0CDB7DEB7AB01BC0149835A836B839A
:101D60007C830E948E0E49815A816B817C8188E040
:101D700090E00F900F900F900F90DF91CF910C9407
:101D8000632FEAE5F2E083E0808311828FEF8283A4
:101D90008383148260817181828193810C94A50E6A
:101DA00080915A0280FF02C08695089580E00895D0
:101DB00080915E02833018F48F5F80935E026091A1
:101DC0005A0270915B0280915C0290915D020C94CA
:101DD000A50E80915E02882319F0815080935E02E7
:101DE00060915A0270915B0280915C0290915D0259
:101DF0000C94A50E6091040170E080915A0280FF5E
:101E00000AC08091780123E0829FC0011124815A89
:101E10009D4F0C94F01380917701909103018917E5
:101E200080F7E82FF0E09F01220F331FE20FF31F2E
:101E3000E15AFD4F1182108212828F5FF0CF909194
:101E40005A0290FF16C090917701209103019217DA
:101E500070F4E92FF0E0DF01AA0FBB1FEA0FFB1FB0
:101E6000E15AFD4F8183608342839F5FF0CF0C94E2
:101E7000FA0E0895CF93DF9300D01F92CDB7DEB74F
:101E800090915A0290FF0AC09E012F5F3F4F0E941F
:101E9000800E4B8169818A810E941F0F0F900F90E5
:101EA0000F90DF91CF910895CF93DF93EC01EC81F8
:101EB000F0E0E45EF54F4491EAE5F2E06281818171
:101EC0000E943A0F8C818F5F8C83DF91CF910895B0
:101ED000CF93DF93EC01EAE5F2E0438162818C81EC
:101EE0000E943A0F8C818F5F8C83DF91CF91089590
:101EF0000F931F93CF93DF9300D01F92CDB7DEB720
:101F00008C018091740181110AC09E012F5F3F4FA7
:101F10004FEF6FEF0E94800E8A8180937401F80169
:101F20008481813051F028F0823061F44091740155
:101F30000AC08091740140E007C06091740140E0E4
:101F400080E003C040E080E060E00E941F0FF801E5
:101F5000248130E0C901019663E070E00E94DA2E2E
:101F600084830F900F900F90DF91CF911F910F916D
:101F70000895AF92BF92CF92DF92EF92FF920F93AC
:101F80001F93CF93DF9300D01F92CDB7DEB7182FEA
:101F9000F62E042FE22E90915A0290FF6EC0E92F88
:101FA000E695AE2FB0E0AA5CBE4F8C918093800185
:101FB0009E7F923061F49E012F5F3F4F812F0E94E0
:101FC000800E4B8169818A810E941F0F44C082303C
:101FD00019F400915D023FC0863019F410915B0244
:101FE0003AC08930D9F38931B1F5E9518E2F81702A
:101FF000D82EE695F0E0E45EF44FA590B490C12CA5
:10200000BB2460910201C61620F5EC2DF0E0EA9D9C
:10201000C001EB9D900DFA9D900D112470E00E947F
:10202000C62E812FD11002C0860F01C0861B909151
:102030007701E90FF11D9F01220F331FE20FF31FFC
:102040009F01215A3D4F402F6F2D0E94800EC39457
:10205000D8CF0E94FA0E10935B02F0925C020093BC
:102060005D02EE2051F060915A0270915B02809106
:102070005C0290915D020E94A50E0F900F900F9050
:10208000DF91CF911F910F91FF90EF90DF90CF9054
:10209000BF90AF900895EAE5F2E09181282F438147
:1020A000628188E0890F0C94B90F81E00C944B1089
:1020B000EAE5F2E09181282F4381628188EF890F60
:1020C0000C94B90F81E00C945810EAE5F2E06281BB
:1020D00028E0620F08F46FEF282F438181810C9470
:1020E000B90F81E00C946510EAE5F2E0628128E026
:1020F000621B08F460E0282F438181810C94B90FA2
:1021000081E00C947410EAE5F2E0438128E0420F8C
:1021100008F44FEF282F628181810C94B90F81E080
:102120000C948310EAE5F2E0438128E0421B08F4B6
:1021300040E0282F628181810C94B90F81E00C94DA
:10214000921020E00C94B90FFF920F931F93CF933E
:10215000DF93EC01F12C0FEF10E060910201F61615
:10216000E8F42091770130E02F0D311DC901880F6F
:10217000991F280F391F215A3D4F70E0C8010E9456
:10218000DA2E962F8C8140915D0260915C02F99E5F
:10219000800D11240E94800EF394DFCF0E94FA0E6E
:1021A0009A818C8190FF02C08F5F01C081508C8327
:1021B000DF91CF911F910F91FF900895BF92CF9221
:1021C000DF92EF92FF920F931F93CF93DF93FC0167
:1021D000828180FF02C00FEF01C001E010E080911A
:1021E00002011817E0F5C12ED12C80917701E6018C
:1021F000C80FD11DCE01880F991FC80FD91FC15A12
:10220000DD4F198218821A8234E0E32EF12CB12CB2
:10221000809176018B0D87FF03C090910201890F99
:10222000082E000C990BC816D90691F480915D0216
:102230008E9DA0018F9D500D112455954795559564
:1022400047959E0160915C0280915B020E94800E26
:10225000B00EF1E0EF1AF108D9F61F5FC0CF0E946F
:10226000FA0E80917601013031F4811102C0809123
:102270000201815007C090E001966091020170E078
:102280000E94DA2E80937601DF91CF911F910F91FA
:10229000FF90EF90DF90CF90BF900895CF93809103
:1022A000770190910301891770F4E82FF0E09F0106
:1022B000220F331FE20FF31FE15AFD4F11821082EC
:1022C00012828F5FF0CFC0E060910201C617B8F5AF
:1022D000EC2FF0E070E0CF010E94DA2E4091770100
:1022E000480F80917501082E000C990B50E0E817FB
:1022F000F907C4F020910101022E000C330B2E17B8
:102300003F0784F09A01220F331F240F351F215AF3
:102310003D4F40915D0260915C0280915B020E94A2
:10232000800E0BC0FA01EE0FFF1F4E0F5F1FFA0168
:10233000E15AFD4F118210821282CF5FC5CF0E94F9
:10234000FA0E2091000180917501820F8093750132
:1023500090910101920F9093010119165CF4082EDF
:10236000000C990B4091020150E041505109841733
:1023700095071CF0219520930001CF9108950F93AC
:102380001F93CF93DF938C01FC018481958101968B
:102390008170992795838483C0E0D5E580910201FF
:1023A000C817F8F42091770130E02C0F311DC901D6
:1023B000880F991F280F391F215A3D4F4C2F4695E2
:1023C000F80184819581840F911D817040915D0297
:1023D00060915C028D9F802D11240E94800ECF5F42
:1023E000DDCFDF91CF911F910F910C94FA0E0F93D7
:1023F0001F93CF93DF93EC0100E010E08091020186
:10240000282F30E00217130724F5909177019801E7
:10241000290F311DA901440F551F240F351F215AC3
:102420003D4F869590E04C81081719071CF4442312
:1024300031F002C0411103C040915D0201C040E093
:1024400060915C0280915B020E94800E0F5F1F4FC3
:10245000D5CF0E94FA0E2C8130E02F5F3F4F2170C4
:1024600033272C83DF91CF911F910F910895EAE5D7
:10247000F2E080818E7F808360817181828193818F
:102480000E94A50E109281012FEF80E792E021506B
:1024900080409040E1F700C000000C94FA0EEAE59D
:1024A000F2E080818E7F8083109281012FEF80E7A0
:1024B00092E0215080409040E1F700C000000C9471
:1024C000FA0E60915A02669570E04BE050E085E0AC
:1024D00091E00E94302F892B19F481E080938101D3
:1024E0000E94B62290937A01809379010895909189
:1024F0005A0290FF35C09170811102C0926006C0EF
:10250000853210F0986402C0880F982B90935A027D
:10251000662351F060915A0270915B0280915C02D7
:1025200090915D020E94A50E60915A02669570E03E
:102530004BE050E085E091E00E94302F892B19F0AC
:102540001092810102C00E94611281E080937C019F
:1025500040915D0260915C0280915B020C94A1103D
:102560000895682F90915A02969581E0890F8532DF
:1025700008F081E00C94771281E00C94B112682F7E
:1025800090915A0296958FEF890F09F484E20C948A
:10259000771281E00C94BF1261E00C947712EAE5A7
:1025A000F2E080818160808386950C94CC128091CA
:1025B0005A0280FD0C9437120C94CF1260E00C94F8
:1025C000771280917F01811133C08091290281604F
:1025D000809329020E94F420811104C00E9481216D
:1025E0000E94C10E0E94A10E60935A0270935B027A
:1025F00080935C0290935D026E7F61F40E94C10E35
:102600000E94A10E60935A0270935B0280935C0259
:1026100090935D020E948E0E1092810180915A0269
:1026200080FF03C086950E94DE1281E080937F01C7
:102630000895EAE5F2E080818160808386950C94BC
:10264000DE121092810108950F931F93CF93DF93B1
:1026500080918101882309F48CC080918001E091F0
:102660005A02E695E81BE0937B01823049F4F0E0E2
:10267000E85EF54FE491CE2FD0E004E51FE049C0BD
:10268000863049F4F0E0EB5EF54FE491CE2FD0E0D8
:1026900008E61FE03EC0893051F4E695F0E0EE5EBA
:1026A000F54FE491CE2FD0E004EA10E132C08F3034
:1026B00051F4E695F0E0E15FF54FE491CE2FD0E0E4
:1026C0000EED10E126C0853149F4F0E0E45FF54FEE
:1026D000E491CE2FD0E00EE411E11BC0883181F0EF
:1026E000833239F4EAE0FAE0C591D49108E71FE0BB
:1026F00010C0843251F4C4EFD1E007EF11E109C0FA
:10270000C8EED3E00FEB11E104C0C0EDD7E00FE756
:102710001EE080917C01882389F010927C010E9448
:10272000B6229E0120953095820F931F90937A01D7
:102730008093790110927E0110927D018091790140
:1027400090917A010E94C2228C179D0790F0E0912F
:102750007901F0917A01CE0FDF1FD0937A01C093F7
:10276000790189E791E0F801DF91CF911F910F91F5
:102770000994DF91CF911F910F91089521B3342FC8
:102780003095232331B3432B3FB7F894FC01680FF6
:10279000791FE617F70789F0819198E041BB0000A7
:1027A00000C087FF21BB880F000000C000C000C030
:1027B00021BB00C09A9591F7ECCF3FBF089520B39D
:1027C000242B20BB9B01220F331F620F731F0E941B
:1027D000BE1387EC90E00197F1F700C00000089568
:1027E00041E00C94DF130F931F93CF93DF93C62F19
:1027F000D42F022FFC0182818823C9F060938401C9
:102800000E94B622909383018093820180E28C0F14
:10281000883008F050C0C77081E001C0880FCA95A9
:10282000EAF7DF91CF911F910F910C94B31710919C
:102830008401161330C080918201909183010E941F
:10284000C222883C910538F5C0E2CD0F1D17B9F0C2
:1028500080E2810F883040F4177081E001C0880F5A
:102860001A95EAF70E94BA17C83048F481E09D2F04
:10287000977001C0880F9A95EAF70E94B317802FCE
:102880000E94A017C830B8F4D77081E001C0880F4B
:10289000DA95EAF70AC080E28C0F883060F4C770DE
:1028A00081E001C0880FCA95EAF7DF91CF911F91AF
:1028B0000F910C94BA17DF91CF911F910F9108954A
:1028C0009C01CB01203F4CE53407F9F078F4283D1A
:1028D000FCE53F07B9F0293D4CE5340711F1273DF0
:1028E0003C4531F526E241EE61EE1EC0223FFCE59B
:1028F0003F0799F070F0233F3C45D1F427E245EEC5
:1029000066EE12C027E245EE0EC026E241EE60EE12
:102910000BC027E245EE64EE07C026E241EE62EE10
:1029200003C028E241E065EE0E94F31380E00895C1
:10293000FC018281882319F010928401089581E0BE
:10294000089590938A01809389010895E091890107
:10295000F0918A01309721F00190F081E02D0994E7
:1029600080E00895E0918901F0918A01309799F013
:1029700020912201222359F020918F0227FF07C0C6
:10298000DC012C9111962C93119725E02C93028059
:10299000F381E02D09940895E0918901F0918A0175
:1029A000309739F022E0DC012C930480F581E02D92
:1029B0000994089520918701309188018217930727
:1029C00071F09093880180938701E0918901F091E3
:1029D0008A01309721F00680F781E02D099408954F
:1029E00020918501309186018217930771F09093B1
:1029F000860180938501E0918901F0918A013097E9
:102A000021F00084F185E02D0994089585B7806850
:102A100085BF85B7806885BF0895089508950C9493
:102A20000E1508950C9411150E9406150E940D159F
:102A30000C940F1581E008950E94AD220E94C90CEC
:102A40000E9482230E94CC260E94E1120C9412154F
:102A50004F925F927F928F929F92AF92BF92CF924E
:102A6000DF92EF92FF920F931F93CF93DF93CDB737
:102A7000DEB72A970FB6F894DEBF0FBECDBF0E9417
:102A8000140D0E941A15811111C08FEF89838A835A
:102A90001B820E94B6228160782F9D838C8349819E
:102AA0005A816B818D810E94E61557C09CE8C92E22
:102AB00091E0D92E00E010E0AA24A394B12C702E4E
:102AC000802F0E94BF0C4C01F601419051906F0184
:102AD000482659264114510431F40F5F1F4F053029
:102AE000110569F7D2CF8091290281FD0E94C80C9F
:102AF00020E030E07501022E02C0EE0CFF1C0A94AB
:102B0000E2F7C70184219521892B09F12E837F8269
:102B10008E209F2091E0892809F490E098870E94F8
:102B2000B6228160782F9A8789874E815F81688578
:102B30008A850E94E615000F111FF801E457FE4F29
:102B400080819181E826F926F182E08206C02F5F1C
:102B50003F4F2E30310571F6C0CF0E9425261091CF
:102B60008B010E94A6141817D9F00E94A614809316
:102B70008B012A960FB6F894DEBF0FBECDBFDF9152
:102B8000CF911F910F91FF90EF90DF90CF90BF906A
:102B9000AF909F908F907F905F904F900C94F40730
:102BA0002A960FB6F894DEBF0FBECDBFDF91CF914E
:102BB0001F910F91FF90EF90DF90CF90BF90AF905B
:102BC0009F908F907F905F904F900895CF93DF9369
:102BD000CDB7DEB72B970FB6F894DEBF0FBECDBFD3
:102BE0004F83588769877A878B87DE01119686E045
:102BF000FD0111928A95E9F785E0FE013796019073
:102C00000D928A95E1F749815A816B817C818D8192
:102C10009E810E94391D2B960FB6F894DEBF0FBE21
:102C2000CDBFDF91CF910895FC01808191810E94F9
:102C300005200895882309F41AC18238C1F40E943E
:102C4000A61481FD14C169E38091100190911101D6
:102C50000E94E8210E9490202FEF81EE94E0215005
:102C600080409040E1F700C0000069E319C083385C
:102C7000F9F40E94A61480FDFAC063E5809110016A
:102C8000909111010E94E8210E9490202FEF81EE87
:102C900094E0215080409040E1F700C0000063E5DF
:102CA00080911001909111010E94F3210C949020C9
:102CB0008438C1F40E94A61482FDD9C067E48091D3
:102CC0001001909111010E94E8210E9490202FEFA5
:102CD00081EE94E0215080409040E1F700C0000078
:102CE00067E4DECF9CEF980F913A40F4682F809113
:102CF0001001909111010E94E821D8CF90E2980F25
:102D0000983050F4877091E001C0990F8A95EAF7E6
:102D1000892F0E944720CACF9BE5980F933070F40B
:102D2000853A29F0863A31F083E890E005C081E8E1
:102D300090E002C082E890E00C94DA1498E5980FD5
:102D4000973108F08EC0883A09F445C0893A09F4F1
:102D500045C08A3A09F445C08B3A09F445C08C3A1B
:102D600009F445C08B3B09F445C08C3B09F445C0D0
:102D70008D3A09F445C0803B09F445C08E3A09F408
:102D800045C08F3A09F445C0813B09F445C0823BF8
:102D900009F445C0833B09F445C0843B09F445C0B0
:102DA000853B09F445C0863B09F445C0873B09F4DF
:102DB00045C0883B09F445C0893B09F445C08D3BBB
:102DC00009F445C08E3B09F445C08A3B09F445C06F
:102DD00080E090E044C082EE90E041C089EE90E057
:102DE0003EC08AEE90E03BC085EB90E038C086EBB9
:102DF00090E035C083EB90E032C084EB90E02FC0D0
:102E000087EB90E02CC08CEC90E029C08DEC90E03A
:102E100026C083E891E023C08AE891E020C082E9DF
:102E200091E01DC084E991E01AC081E292E017C0F0
:102E300083E292E014C084E292E011C085E292E065
:102E40000EC086E292E00BC087E292E008C08FE6F7
:102E500090E005C080E790E002C08AE292E00C9426
:102E6000F014803F20F00E942D250C941A2608951E
:102E7000882309F464C0823879F40E94A61481FF83
:102E80005EC069E380911001909111010E94E821D8
:102E90000E94902069E310C08338B1F40E94A61408
:102EA00080FF4DC063E580911001909111010E9457
:102EB000E8210E94902063E580911001909111011A
:102EC0000E94F3210C949020843879F40E94A61477
:102ED00082FF35C067E480911001909111010E943A
:102EE000E8210E94902067E4E7CF9CEF980F913A89
:102EF00010F4682FE1CF90E2980F983050F487706B
:102F000091E001C0990F8A95EAF7892F0E944D2020
:102F1000D9CF9BE5980F933020F480E090E00C949B
:102F2000DA1498E5980F973120F480E090E00C9443
:102F3000F014803F20F00E9495250C941A260895E5
:102F4000CF93C82F0E941A16C93349F42FEF83EC90
:102F500099E0215080409040E1F700C000008C2FA4
:102F6000CF910C943817882321F00E9447200C94AD
:102F700090200895882321F00E944D200C949020E9
:102F800008954F925F926F927F92BF92CF92DF929D
:102F9000EF92FF920F931F93CF93DF937C01062F45
:102FA000C72FFC01158112951F70D281D1110E948B
:102FB00064200E943D20882379F0DD2369F080E2BF
:102FC000800F883048F082E00E94DB200E943D2084
:102FD00091E0B82EB92601C0B12CCC2EC2948FE05E
:102FE000C822D12CF601E859FF4F0C94102F8C2FDA
:102FF000807FCF70882311F0C295C07FDD2399F0C8
:10300000CC2309F4C4C180E2800F883010F0011194
:1030100004C08C2F0E94472003C08C2F0E94572091
:103020000E949020B4C1802F0E943817CC2309F44D
:10303000F7C180E2800F883010F0011104C08C2F9E
:103040000E944D2003C08C2F0E945D200E94902082
:10305000E7C18C2F807FCF70803211F0C295C07F86
:10306000002319F00130C9F022C0DD2371F01123D3
:1030700041F0113031F40E9477208C2B0E947D208A
:10308000CFC10E9477208C2B3AC1112319F0113047
:1030900009F4C6C10E94862018C0DD2321F0163035
:1030A00008F0BEC10EC0153008F0BAC10EC0DD2355
:1030B00051F0112331F0F701858180FF68C18F70D5
:1030C00085838C2F1CC1111173C18C2F1EC18C2FB5
:1030D00086958695837090E0009719F0019761F0CE
:1030E0009FC1DD2321F0802F9C2F937002C080E0D0
:1030F00090E00E94DA14A4C1DD2321F0802F9C2FE0
:10310000937002C080E090E00E94F01499C1DD232A
:10311000F9F0053F51F0063F71F0043FA9F48091AA
:10312000890290918A0281600BC0809189029091FE
:103130008A02826005C08091890290918A0284602F
:1031400090938A0280938902802F0E942D251EC0B1
:10315000053F51F0063F71F0043FA9F480918902C8
:1031600090918A028E7F0BC08091890290918A0291
:103170008D7F05C08091890290918A028B7F909308
:103180008A0280938902802F0E9495250E941A2628
:1031900057C18C2F837009F04BC0D1114DC1202F26
:1031A000229526952770220F220F602F6F70862F91
:1031B00090E0A0E0B0E02C013D01022E04C0440CE0
:1031C000551C661C771C0A94D2F704FF10C08FE0D0
:1031D00090E0A0E0B0E004C0880F991FAA1FBB1FB9
:1031E0002A95D2F780959095A095B09503C080E080
:1031F00090E0DC01C695C695C370D0E0BC01CD015E
:103200006429752986299729C230D10559F0C33020
:10321000D10559F0219719F00E947E1E0DC10E9420
:103220006C1E0AC10E94901E07C10E946A1E04C142
:10323000DD2319F08C2F817001C08695882309F455
:10324000FBC0202F229526952770220F220F602F7A
:103250006F70862F90E0A0E0B0E02C013D01022EBF
:1032600004C0440C551C661C771C0A94D2F704FF5A
:1032700010C08FE090E0A0E0B0E004C0880F991F7C
:10328000AA1FBB1F2A95D2F780959095A095B0955F
:1032900003C080E090E0DC01C695C695C370D0E025
:1032A000BC01CD016429752986299729C230D10531
:1032B00059F0C330D10559F0219719F00E94441FED
:1032C000BBC00E94321FB8C00E94561FB5C00E94EA
:1032D000A51EB2C0802F90E0FC01E05EF109E5314F
:1032E000F10508F050C0E858FF4F0C94102F0F70F4
:1032F0008C2F8F71DD2331F00E94CB1E802F0E9416
:10330000B3178EC00E94EC1E802F0E94BA1788C08F
:10331000DD2341F0153008F083C08C2F8F710E949F
:10332000111F7EC0163008F07BC0F7CFDD2339F0C7
:103330008C2F8F710E94CB1E73C0DD23C9F38C2F9D
:103340008F710E94EC1E6CC0DD2329F08C2F8F71D1
:103350000E94B61E65C00E94B11E62C0DD2349F006
:10336000CF718C2F0E94CB1E63E08C2F0E94C62051
:1033700057C081E00E94DB20123008F451C082E087
:103380000E94DB204DC0DD2331F0112389F2802F14
:103390000E941A1645C0112391F2093349F4FFEF38
:1033A00023EC89E0F15020408040E1F700C00000AC
:1033B000802F0E94381734C04C2F4F70602FC701E8
:1033C0000E941D070E94DD1D3BC0D11139C0CF7086
:1033D000D0E0C230D10599F03CF4209769F02197F4
:1033E000F9F40E9406272CC0C430D10571F054F0C6
:1033F0002597B1F480E00AC00E94E92621C00E940E
:1034000045271EC00E944C271BC083E00E946F27E7
:1034100017C04C2F4F70602FC7010E94110A10C0B7
:1034200098E0C916D10441F05CF0FAE0CF1AD10857
:1034300022E0C216D10420F40E94A6140E94F407D0
:10344000BB20F1F00E94392080FD1AC0F7011282E2
:103450000E9433200E94CB1EC7010E944E1A0E9478
:103460003320DF91CF911F910F91FF90EF90DF906C
:10347000CF90BF907F906F905F904F900C94EC1E18
:10348000DF91CF911F910F91FF90EF90DF90CF9040
:10349000BF907F906F905F904F9008950F931F9310
:1034A000CF93DF93EC01888199812B813C81232B81
:1034B000B9F09F3F11F48F3F99F0CE010E940608AA
:1034C000882371F0688179818A810E9410208C01A3
:1034D0000E94681F0E94691EB801CE010E94C11798
:1034E000DF91CF911F910F9108950E9464200E9457
:1034F00074200E9490200E94C0260E941A2680E01C
:1035000090E00E94DA1480E090E00C94F014809136
:103510001001909111010E94FE210C94751A0E94D5
:1035200054200C94871AE92FE295EF70F0E032975F
:10353000EE30F105B0F4E357FF4F0C94102F803FAD
:1035400091F018F4803E68F40EC0843F51F40BC033
:10355000803E48F0813F29F406C093FB882780F91C
:10356000089580E0089581E008950E9405200E945A
:10357000931A0895CF93DF9300D000D01F92CDB758
:10358000DEB70F900F900F900F900F90DF91CF91BB
:103590000895CF93DF9300D000D000D0CDB7DEB731
:1035A00026960FB6F894DEBF0FBECDBFDF91CF9148
:1035B00008951F93CF93DF93C091970116E08091F8
:1035C0009801C81799F0D0E01C9FF0011D9FF00DE5
:1035D0001124E756FE4F40815181628173818481BD
:1035E00095810E94C91A2196C770E9CFDF91CF91CA
:1035F0001F9108954091C9015091CA016091CB017A
:103600007091CC018091CD019091CE010C94C91A9A
:103610008091CE0182958F7009F054C08091CB01CA
:10362000882309F44FC080919701A091980160917F
:10363000C9017091CA014091CC015091CD01B6E011
:103640008A1709F43FC090E041155105C1F17F3F51
:1036500011F46F3FA1F1B89FF001B99FF00D112453
:10366000E756FE4F218172132AC02081621327C0C2
:103670002281211124C0238134812417350710F4BD
:1036800021503109241B350B283C3105C0F4209111
:10369000CE012F7020612093CE0126E0289FF001FB
:1036A000299FF00D1124E256FE4F80818F708061BA
:1036B000808389EC91E00E944E1A0C94D91A0196ED
:1036C0008770BECF0895CF92DF92EF92FF920F9353
:1036D0001F93CF93DF93CDB7DEB762970FB6F89401
:1036E000DEBF0FBECDBF8C0185E0F801DE011D9667
:1036F00001900D928A95E1F7D8014C9111965C9159
:10370000119712966C9112971396CD90DC901497A6
:103710003091C9017091CA018091CC019091CD0185
:10372000009709F46BC17F3F19F43F3F09F466C16C
:10373000E090CB01EE2009F4C0C02091CE01C81664
:10374000D90628F0F601E81BF90BCF0104C08095DB
:1037500090958C0D9D1DFF24F394883C910578F085
:10376000F12C207F09F0C6C07C2DD98AC88A8989AE
:103770000E94BA1A89EC91E00E944E1AB1C0822FC1
:10378000807F09F046C0751314C0341312C0611154
:1037900010C02F7020612093CE010E94FA1A89EC8C
:1037A00091E00E944E1A8091CE01D80115968C931B
:1037B0002EC0CD2819F15F3F11F44F3FF9F0F62EDE
:1037C00061111CC0809197012091980136E0821709
:1037D00009F45AC090E0389FF001399FF00D112490
:1037E000E756FE4F7181571306C07081471303C01F
:1037F0007281711103C001968770E9CFF62E66239E
:1038000009F427C18091CE0181608093CE01F12C13
:1038100020C1751308C0341306C0611104C0809123
:10382000CE01D801C3C04D875E878D859E856A8B8A
:103830000E94B51A6A898823E1F16623D1F12091AB
:10384000CE01822F82958F7090E0029774F0809164
:10385000C9019091CA0198878F831986DB86CA8631
:103860002C87CE0107960E944E1A86E0F801A9EC3B
:10387000B1E001900D928A95E1F70E94081B0E9429
:10388000FA1AFF24F394E5C04D875E878D859E85E7
:103890000E940520292F22952F7030E0223031051B
:1038A0000CF0CBC09F7009F0C5C0805E883008F472
:1038B000D0C0C8010E944E1AE4CFC816D90608F439
:1038C00053C0F601E81BF90BCF01883C910508F4C1
:1038D00050C0F12C7C2DD98AC88A89890E94BA1AD5
:1038E000E9ECF1E086E0DF011D928A95E9F70E949C
:1038F000FA1AAFC0751314C0341312C0611110C08E
:103900008091CE01F8018583C8010E944E1A86E09D
:10391000E9ECF1E0DF011D928A95E9F7FE2C99C0F0
:103920004D875E878D859E856A8B0E94B51A6A8950
:10393000882309F4BECF662309F4BBCF2091CE01C2
:10394000822F82958F7090E002970CF48ECF809139
:10395000C9019091CA019A8389831B82DD82CC823E
:103960002E83CE0101967FCF809590958C0D9D1D65
:10397000ACCFF62E662309F49CCF75132EC03413FA
:103980002CC02091CE0120FD1FC0822F82958F7008
:10399000D9F0D80115962C9315978F3049F08F5F89
:1039A000982F9295907F822F8F70892B15968C93EC
:1039B000C8010E944E1A86E0F801A9ECB1E001901E
:1039C0000D928A95E1F793CF86E0F801A9ECB1E07A
:1039D00001900D928A95E1F73CC04D875E878D85F9
:1039E0009E850E94B51A811140CF8091CE018160E1
:1039F0008093CE01C8010E944E1A2BC0662309F4A1
:103A000058CF4D875E878D859E850E94B51AF82E0A
:103A1000882309F44ECF86E0F801A9ECB1E00190CB
:103A20000D928A95E1F789EC91E00E9414160E94AC
:103A3000081B5DCF811139CF0CC0243031050CF04B
:103A400038CF9F7009F431CFF8019581907F09F04C
:103A50002CCF8F2D62960FB6F894DEBF0FBECDBF70
:103A6000DF91CF911F910F91FF90EF90DF90CF905A
:103A700008951F93CF93DF93CDB7DEB72C970FB682
:103A8000F894DEBF0FBECDBF4F83588769877A8712
:103A90008B879C87CE0107960E94631B882369F061
:103AA0008F8198852A853B85232BF1F19F3F09F073
:103AB00063C08F3F09F060C037C086E0FE013796D3
:103AC000DE01119601900D928A95E1F76F8178855C
:103AD000EA85FB85309741F17F3F11F46F3F21F17B
:103AE0002091980130E0C901019687709927409193
:103AF000970150E08417950709F447C069837A83DA
:103B0000FD83EC8396E0929FD001939FB00D11242A
:103B1000A756BE4FFE01319601900D929A95E1F79E
:103B2000809398010E94D91A16E080919701909194
:103B300098018917C1F1189FC001112487569E4F23
:103B40000E94631B882379F1E09197011E9FF00189
:103B50001124E756FE4F4081518162817381848137
:103B600095810E94C91A8091970190E00196877013
:103B7000992780939701D9CF4F81588569857A8598
:103B80008B859C850E94C91ACFCF0E948F1A1092F4
:103B9000980110929701E9ECF1E086E0DF011D92B7
:103BA0008A95E9F7C1CF2C960FB6F894DEBF0FBE09
:103BB000CDBFDF91CF911F910895EF92FF920F93A8
:103BC0001F93CF93DF938C01892B09F46CC0F12CE8
:103BD000EE24E394E8012196F8018491843740F4BF
:103BE000843008F051C0813081F0823019F15BC01F
:103BF000853709F444C0A8F19CE7980F903708F086
:103C000052C08F770E94381741C00E5F1F4FFE01D0
:103C1000C49180E28C0F883048F4C7708E2D01C0AB
:103C2000880FCA95EAF70E94672014C08C2F0E9463
:103C30001A162DC00E5F1F4FFE01C49180E28C0F3B
:103C4000883058F4C7708E2D01C0880FCA95EAF7E6
:103C50000E946D200E9490201AC08C2F0E9438175D
:103C600016C00E5F1F4FFE01C491CC2381F08FE977
:103C70009FE00197F1F700C00000C150F6CF0E5F42
:103C80001F4FFE01F49003C00E941A168E018F2D63
:103C9000882309F49FCFEFE9FFE03197F1F700C0E7
:103CA00000008150F5CFDF91CF911F910F91FF90D0
:103CB000EF90089508950C945A1E0E945B1E609325
:103CC00000027093010280930202909303020C940D
:103CD000751A08950C945D1E0F931F9300910002B6
:103CE000109101022091020230910302602B712B8E
:103CF000822B932B1F910F910C945D1E0F931F939A
:103D00000091000210910102209102023091030201
:103D100060237123822393231F910F910C945D1EC6
:103D20000F931F9300910002109101022091020253
:103D30003091030260277127822793271F910F91EB
:103D40000C945D1E08950C94A21E0E94A31E609305
:103D5000FC017093FD018093FE019093FF010C9490
:103D6000751A60E070E0CB010C94A51E0F931F93B1
:103D700041E050E060E070E08A019B0104C0000F68
:103D8000111F221F331F8A95D2F7C901B8011F9155
:103D90000F910C94A51E0F931F9341E050E060E03B
:103DA00070E004C0440F551F661F771F8A95D2F735
:103DB0008091FC019091FD01A091FE01B091FF0165
:103DC0008A019B01082B192B2A2B3B2BC901B80117
:103DD0001F910F910C94A51E0F931F9341E050E08B
:103DE00060E070E004C0440F551F661F771F8A957E
:103DF000D2F740955095609570958091FC01909117
:103E0000FD01A091FE01B091FF018A019B010823F1
:103E100019232A233B23C901B8011F910F910C9448
:103E2000A51E0F931F9341E050E060E070E004C0D6
:103E3000440F551F661F771F8A95D2F78091FC01AA
:103E40009091FD01A091FE01B091FF018A019B01BB
:103E5000082719272A273B27C901B8011F910F916D
:103E60000C94A51E0F931F930091FC011091FD016E
:103E70002091FE013091FF01602B712B822B932B3F
:103E80001F910F910C94A51E0F931F930091FC019D
:103E90001091FD012091FE013091FF0160237123FB
:103EA000822393231F910F910C94A51E0F931F93B0
:103EB0000091FC011091FD012091FE013091FF0164
:103EC00060277127822793271F910F910C94A51EBD
:103ED00008952EE0929F800D1124A82FA695A695F7
:103EE000A695877051E001C0550F8A95EAF785E0E5
:103EF000A89FD001112420E030E070E0F901EA0F22
:103F0000FB1FE153FE4F4081CB01022E02C096956C
:103F100087950A94E2F781709927819584278523F4
:103F2000842780832F5F3F4F2530310539F708956F
:103F30002EE0929F800D1124682F669566956695F8
:103F4000982F977085E0689FB001112440E050E001
:103F500080E0FA01E60FF71FE153FE4F208130E0C9
:103F6000092E02C0369527950A94E2F7217033276F
:103F7000042E01C0220F0A94EAF7822B4F5F5F4F95
:103F80004530510531F70895BF92CF92DF92EF92FD
:103F9000FF920F931F93CF93DF938C01C090000289
:103FA000D0900102E0900202F09003028091FC01A7
:103FB0009091FD01A091FE01B091FF01C82AD92A7C
:103FC000EA2AFB2ACFE1D0E0D701C6010C2E04C0BB
:103FD000B695A795979587950A94D2F780FF07C065
:103FE000BC2EB8018C2F0E942C0A019719F421973E
:103FF00058F7B12C8B2DDF91CF911F910F91FF902E
:10400000EF90DF90CF90BF900895CF93DF93EC01B6
:104010000E94C41FBE010E942C0ADF91CF91089517
:104020001F93CF93DF93EB0190919601992321F099
:10403000CB010E94052013C0882349F0CB010E94C8
:10404000C41F182F682FCE010E94691F04C0CB0126
:104050000E94981F182FBE01812F0E942C0ADF9109
:10406000CF911F910895809104028595859585953E
:1040700008958091040287700895909104029770CA
:1040800081E009F480E008958091280208959091DC
:104090002802892B80932802089580959091280208
:1040A0008923809328020895109228020895909100
:1040B0002702892B809327020895809590912702EB
:1040C00089238093270208951092270208959091E2
:1040D0002602892B809326020895809590912602CE
:1040E00089238093260208951092260208958091D4
:1040F0000502089508950C947A209091050298176E
:1041000021F0809305020C947B2008958091050294
:10411000882329F01092050280E00C947B200895FA
:10412000E0911001F0911101809128028083E091CB
:104130001001F0911101908180912702892B8083D9
:10414000E0911001F0911101908180912602892B5C
:10415000808380910502882381F0E0911001F09125
:1041600011019081892B8083809110019091110120
:104170000E94832181110E948620809110019091DC
:1041800011010C94B21408950C94C32098E0899FF7
:1041900090011124262B209304020E94CB1E8091B3
:1041A00004028595859585950C94C420109204028F
:1041B00080E00C94C4202091040280958223809397
:1041C0000402982F977079F430E0482F082E000CE5
:1041D000550B2417350739F08595859585950E94EF
:1041E000EC1E0C94D620089580E090E00E944B2FA6
:1041F00021E08D3E9E4F09F020E0822F089582E05D
:1042000090E00C943D2F682F82E090E00C94512FA9
:1042100083E090E00C943D2F682F83E090E00C94B5
:10422000512F84E090E00C943D2F682F84E090E0C3
:104230000C94512F86E090E00C943D2F682F86E07F
:1042400090E00C94512FAB01BC018FE090E00C94F6
:10425000632FAB01BC0183E190E00C94632F60E01D
:1042600070E0CB010C94292160E070E0CB010E944A
:1042700023210C942F216DEE7EEF80E090E00E94D0
:104280006F2F60E082E090E00E94512F60E083E0B9
:1042900090E00E94512F10920002109201021092A1
:1042A00002021092030260E084E090E00E94512F2D
:1042B00060E085E090E00E94512F60E086E090E0B1
:1042C0000E94512F6FEF87E090E00E94512F40E055
:1042D00050E0BA0188E090E00E94632F60E08DE03A
:1042E00090E00E94512F40E050E0BA0188E190E058
:1042F0000E94632F60E087E190E00E94512F0C94B0
:1043000034210C943B21FC013296809122018823B8
:1043100031F080918F0287FF02C09EE101C096E0DC
:1043200080E0915028F021912223D9F38F5FF9CFBB
:1043300008959C01FC0132969FEF80E04191461761
:1043400089F09F3F19F4411101C0982F8F5F86308B
:10435000A9F79F3F39F0F901E90FF11D97FDFA9593
:10436000628308950895FC013296089620812613F1
:1043700001C010823196E817F907C1F70895262F7A
:104380002695269526952E3168F4FC01E20FF11D45
:10439000677021E030E001C0220F6A95EAF7828160
:1043A000282B22830895262F2695269526952E3193
:1043B00070F4FC01E20FF11D677021E030E001C0F4
:1043C000220F6A95EAF72095828128232283089597
:1043D00020912201222329F020918F0227FD0C94A5
:1043E000BF210C94992120912201222329F02091B0
:1043F0008F0227FD0C94D3210C94B321209122012C
:10440000FC013296222331F080918F0287FF02C097
:104410008EE101C086E0DF011D928A95E9F70895DB
:1044200008950C9410220E941122809196028430EB
:1044300009F43CC010922A0220E488E190E00FB613
:10444000F894A895809360000FBE2093600080E0F0
:104450000E947A0780E00E94F4070E942113809155
:104460002B0281110AC081E080932B0280915A02B5
:10447000817080932C020E944F120E94112283B7F8
:10448000817F846083BF83B7816083BF7894889580
:1044900083B78E7F83BF0FB6F894A8958091600094
:1044A000886180936000109260000FBE08950895A7
:1044B0000895CF930E9457220E94140D0E94582203
:1044C000C0E08C2F0E94BF0C892B29F4CF5FC53030
:1044D000C1F780E001C081E0CF91089508950C9468
:1044E0006E220E948F1A0E94CC260E94A6140E945F
:1044F000F40710922B0280912C0281110E94191353
:104500000E9461120C946F221F920F920FB60F92AD
:1045100011248F939F93AF93BF9380912A028111AF
:1045200013C080918B0290918C02A0918D02B0916A
:104530008E024196A11DB11D80938B0290938C0237
:10454000A0938D02B0938E02BF91AF919F918F91F6
:104550000F900FBE0F901F90189582E084BD93E0DE
:1045600095BD9AEF97BD80936E0008952FB7F8948C
:1045700080918B0290918C02A0918D02B0918E025D
:104580002FBF0895CF92DF92EF92FF920F931F9368
:104590002FB7F89440918B0250918C0260918D025C
:1045A00070918E022FBF6A017B01EE24FF248C01E3
:1045B00020E030E0C016D106E206F30610F44150C8
:1045C00051099A01281B390BC9011F910F91FF90C6
:1045D000EF90DF90CF90089578941F920F920FB6CE
:1045E0000F9211248F939F93AF93BF9380918B026F
:1045F00090918C02A0918D02B0918E020196A11D26
:10460000B11D80938B0290938C02A0938D02B09386
:104610008E02BF91AF919F918F910F900FBE0F901F
:104620001F90189581E08093E00080E28093D8008D
:104630001092C9008FE19EE40197F1F700C00000DD
:1046400087E090EBDC0180939F029093A002A093FF
:10465000A102B093A2029CE088E10FB6F894A8955D
:10466000809360000FBE90936000FFCFAF92BF9227
:10467000CF92DF92EF92FF920F931F93CF93C0E000
:10468000CC24C394D12CE82EF12C8C2F0E94BF0C8B
:104690005C0100E010E09601002E02C0220F331FE3
:1046A0000A94E2F72A213B21232B31F40F5F1F4F9D
:1046B0000E30110581F70AC0602F7C2F80E00E9428
:1046C000120AE816F90691F781E004C0CF5FC53001
:1046D000E1F680E0CF911F910F91FF90EF90DF9076
:1046E000CF90BF90AF900895CF93C82F8CE20E94D7
:1046F0003623882321F08C2FCF910C94362380E031
:10470000CF910895CF930E94F420811102C00E949E
:104710008121C5E6C15049F00E94140D8FE39CE948
:104720000197F1F700C00000F5CF89E20E947423E1
:1047300081110FC18AE20E94742381110E9481219C
:1047400085E00E94742381110E9412230E94FF20A1
:104750008093290287E00E9474238823A9F18BE1CA
:104760000E947423882351F08091290281FB222723
:1047700020F991E0922790FB81F90EC08EE00E9413
:104780007423882361F08091290282FB222720F97B
:1047900091E0922790FB82F98093290215C080E175
:1047A0000E94742390912902882341F093FB2227D1
:1047B00020F981E0822780FB93F904C0892F80953E
:1047C00080FB90F990932902809129020E94032195
:1047D0000E94112190E09093900280938F0280EECE
:1047E0000E947423882341F080918F02982F909526
:1047F00090FB80F980938F0289E30E9474238823C1
:1048000059F080918F0281FB222720F991E09227B5
:1048100090FB81F980938F0282EE0E94742388239B
:1048200059F080918F0282FB222720F991E0922794
:1048300090FB82F980938F0286EE0E947423882376
:1048400059F080918F0283FB222720F991E0922773
:1048500090FB83F980938F0283EE0E947423882358
:1048600059F080918F0284FB222720F991E0922752
:1048700090FB84F980938F0285E30E947423882340
:1048800059F080918F0285FB222720F991E0922731
:1048900090FB85F980938F0281E30E947423882323
:1048A00059F080918F0286FB222720F991E0922710
:1048B00090FB86F980938F0281E10E947423882304
:1048C00059F080918F0287FB222720F991E09227EF
:1048D00090FB87F980938F0280918F020E941521AF
:1048E00087E20E947423C82F8EE10E9474238111F5
:1048F000C2608FE10E9474238111C46080E20E9433
:1049000074238111C86081E20E9474238111C06107
:1049100082E20E9474238111C06283E20E947423A8
:104920008111C06484E20E947423882311F0C0685E
:1049300002C0CC2329F08C2F0E940C216C2F03C0C5
:104940000E940821682F70E080E090E0CF910C94E5
:104950006A1ECF9108958091300280FF0BC0609154
:10496000150185E0689FB0011124759567957595CF
:1049700067952BC081FF09C06091150185E0689F94
:10498000B00111247595679520C082FF07C0609122
:10499000150185E0689FB001112417C090912F0286
:1049A0009923D1F060911401961788F72091150191
:1049B00085E0289F90011124929FA001939F500DA4
:1049C000112470E0CA010E94DA2E6038710540F4AB
:1049D0006115710539F002C065E070E0862F089519
:1049E0008FE7089581E008958091300280FF08C02C
:1049F0006091130170E0759567957595679521C075
:104A000081FF06C06091130170E07595679519C02C
:104A100082FF04C06091130170E010C090912F02DA
:104A20009923C1F0609112019617A0F780911301AC
:104A3000899FC001112470E00E94DA2E6038710550
:104A400028F46115710521F0862F08958FE70895E8
:104A500081E0089561E070E0F4CF803F21F40E948E
:104A6000AB24819504C0813F29F40E94AB2480933C
:104A700034020895823F21F40E94AB24819504C042
:104A8000833F29F40E94AB24809333020895893F29
:104A900019F40E94F42405C08A3F31F40E94F424E2
:104AA00081958093350208958B3F21F40E94F42470
:104AB000819504C08C3F29F40E94F424809336022F
:104AC0000895843F21F480913202816017C0853FB0
:104AD00021F480913202826011C0863F21F48091DE
:104AE000320284600BC0873F21F4809132028860DB
:104AF00005C0883F31F48091320280618093320298
:104B000008958D3F21F48091300281600BC08E3F6B
:104B100021F480913002826005C08F3F29F480919A
:104B200030028460809330020895803F39F4809190
:104B3000340287FF6CC01092340269C0813F29F4AF
:104B4000809134021816BCF362C090913302823F08
:104B500029F497FF5CC01092330259C0833F19F4C7
:104B60001916CCF354C0893F41F4809135021816D0
:104B70000CF04DC0109235024AC08A3F29F4809152
:104B8000350287FF44C0F6CF8B3F39F4809136025F
:104B900087FF3DC0109236023AC08C3F29F48091C5
:104BA00036021816BCF333C0843F21F480913202E0
:104BB0008E7F17C0853F21F4809132028D7F11C016
:104BC000863F21F4809132028B7F0BC0873F21F416
:104BD00080913202877F05C0883F31F48091320294
:104BE0008F7E8093320213C08D3F21F4809130027A
:104BF0008E7F0BC08E3F21F4809130028D7F05C0E7
:104C00008F3F29F4809130028B7F80933002809116
:104C1000330281110EC08091340281110AC080914B
:104C20003502811106C080913602811102C01092B6
:104C30002F02089581E392E00E94CC140E94B622D4
:104C400090932E0280932D0208951F93CF93DF93AC
:104C500080912D0290912E020E94C222AC0190916F
:104C60002F02992321F02091160130E006C02091F7
:104C700017018AE0289F900111244217530708F476
:104C80007BC080913302C0913402D09135021091E3
:104C90003602811107C0C1116BC0D11169C0111159
:104CA00067C06AC09F3F19F09F5F90932F0218164C
:104CB00024F40E94AB24809333028091330287FF57
:104CC00005C00E94AB248195809333021C1624F406
:104CD0000E94AB24809334028091340287FF05C088
:104CE0000E94AB24819580933402309133023323A8
:104CF000E1F0209134022223C1F045EB3403C001DE
:104D00001124892F990F990B009709F481E0809362
:104D1000330235EB2303C0011124892F990F990B1E
:104D2000009709F481E0809334021D1624F40E9458
:104D3000F424809335028091350287FF05C00E94DC
:104D4000F424819580933502111624F40E94F424F2
:104D5000809336028091360287FF05C00E94F424BA
:104D6000819580933602DF91CF911F910C941A2682
:104D70009F3F09F099CFA1CFDF91CF911F91089567
:104D8000E1E3F2E086E0DF011D928A95E9F71092F7
:104D90002F021092300208950E94F420811102C067
:104DA0000E9481210E941A2180939102282F26952A
:104DB00030E02430310524F08170866080939102C8
:104DC0008091910280FF02C0869501C080E00C9422
:104DD0007A0720919102822F8695482F50E0433028
:104DE000510544F48F5F982F990F822F8170892B82
:104DF00080939102809191028160809391020E9440
:104E00001E218091910286950C947A0780919102DF
:104E1000982F969591F09158990F8170892B8093D6
:104E200091028E7F91E009F490E08091910290FBD5
:104E300080F9809391020E941E21809191028695B3
:104E40000C947A078091910280FD11C0816080935B
:104E50009102813019F483E0809391028091910254
:104E60000E941E218091910286950C947A070895E4
:104E70008091910280FF08C08E7F809391020E94F2
:104E80001E2180E00C947A0708958091910280FDA4
:104E90000C9438270C94222790919102892F8695A3
:104EA0008F5F8F779170843028F4880F892B8093DF
:104EB000910202C090939102809191028E7F91E0C5
:104EC00009F490E08091910290FB80F98093910227
:104ED0000E941E218091910286950C947A0784305D
:104EE00008F083E0880F909191029170892B809354
:104EF00091028E7F91E009F490E08091910290FB05
:104F000080F9809391020E941E21809191028695E2
:104F10000C947A078091570208950F931F93CF93B3
:104F2000DF9300D01F92CDB7DEB78C010E94FD2920
:104F3000823011F0843021F584E089831B830A8359
:104F400082E08093E9008FEF9091E800815095FD19
:104F500006C095ED9A95F1F700008111F5CF80918B
:104F6000E80085FF0DC040E050E063E070E0CE0156
:104F700001960E941A2A8091E8008E778093E800BB
:104F80000F900F900F90DF91CF911F910F91089587
:104F9000CF93DF9300D01F92CDB7DEB7209196025A
:104FA000243031F523E02983805891099B838A833B
:104FB00082E08093E9008FEF9091E800815095FDA9
:104FC00006C095ED9A95F1F700008111F5CF80911B
:104FD000E80085FF0DC040E050E063E070E0CE01E6
:104FE00001960E941A2A8091E8008E778093E8004B
:104FF0000F900F900F90DF91CF910895CF93DF9393
:10500000EC010E94FD29823011F08430F9F482E035
:105010008093E9009FEF8091E800915085FD06C0E4
:1050200085ED8A95F1F700009111F5CF8091E800A8
:1050300085FF0CC040E050E066E070E0CE010E94C9
:105040001A2A8091E8008E778093E800DF91CF9153
:105050000895CF93DF93EC010E94FD29823011F077
:105060008430D9F580912201882339F080918F0214
:1050700087FF03C060E282E002C068E081E08093C5
:10508000E9008FEF9091E800815095FD06C095ED05
:105090009A95F1F700008111F5CF8091E80085FF26
:1050A0001CC080912201811105C040E050E068E001
:1050B00070E003C070E040E050E0CE010E941A2A88
:1050C0008091E8008E778093E80080E2FE01A7E3FC
:1050D000B2E001900D928A95E1F7DF91CF910895AA
:1050E00080919502811109C00E94AF2B0E940C2C67
:1050F0008091E20084608093E2000895109295020E
:105100000895089508950C94712242E061EC81E0C5
:105110000E94292B42E261EC82E00C94292B8091C1
:105120009802833009F460C030F4813071F082302D
:1051300009F499C008958A3009F485C08B3009F4C8
:105140006BC0893009F0A7C020C080919702813AD6
:1051500009F0A1C08091E800877F8093E8008091EA
:105160009B0290919C02892B21F460E287E392E0FC
:1051700003C060E080E090E070E00E94652A8091CA
:10518000E8008B778093E800089580919702813240
:1051900009F081C080919B0290919C02029708F0D7
:1051A0007AC08091E800877F8093E8008091E800D2
:1051B00082FD05C0809196028111F8CF6CC02091CC
:1051C000F3008091F20090E0922B029729F48091F5
:1051D000F1008B7F813021F48091F10080935702A0
:1051E0008091E8008B7753C080919702813A09F053
:1051F00052C080919B0290919C02892B09F04BC078
:105200008091E800877F8093E8008091E80080FF2C
:10521000FCCF8091220136C0809197028132D9F56E
:1052200080919B0290919C02892BA9F58091E800C6
:10523000877F8093E8000E945E2B80919902809383
:1052400022010C948F1A80919702813221F580916E
:10525000E800877F8093E8000E945E2B80919A028D
:1052600080935802089580919702813AA1F4809129
:10527000E800877F8093E8008091E80080FFFCCF02
:10528000809158028093F1008091E8008E7780939E
:10529000E8000C945E2B089584B7877F84BF0FB617
:1052A000F894A895809160008861809360001092C6
:1052B00060000FBE80E880936100109261000E9440
:1052C00014150E94AF2B0E940C2C8091E200846088
:1052D0008093E20078940E949B2E0E941C1588E126
:1052E00091E00E94A11480919602853069F40E9499
:1052F0001322809194028823B1F30E9459228823BB
:1053000091F30E94042AEFCF0E9428150E942413D3
:10531000EACF0C948B29292F332723303105C9F08C
:1053200064F42130310581F02230310509F04CC0A0
:105330008BE390E023E53CE04BC02132310521F1C5
:105340002232310589F140C082E190E02EE83CE054
:105350003FC099278130910571F02CF4892BA1F57C
:10536000EFE4FCE00DC08230910541F0039761F558
:10537000E1E2FCE005C0EFE3FCE002C0E7E2FCE0B4
:10538000849190E09F0124C06115710541F0613066
:105390007105D1F489E090E02EE73CE019C089E086
:1053A00090E025E63CE014C06115710541F06130E4
:1053B000710551F480EC90E020EA3CE009C080E403
:1053C00090E020E63DE004C080E090E020E030E0A6
:1053D000FA013183208308950895CF93C82F0E9446
:1053E000EC29C0935902CF910895809196028430A0
:1053F00011F081E0089582E00895809159028111B1
:1054000002C00C94F529089580E189BD82E189BD2F
:1054100009B400FEFDCF8091D8008F7D8093D80025
:105420008091E00082608093E0008091E00081FD47
:10543000FCCF0895CF92DF92EF92FF920F931F93CC
:10544000CF93DF93EC018B016A010E947D2B8111C8
:1054500033C0C114D10439F0F60180819181081B59
:10546000190BC80FD91FE12CF12C0115110519F1E9
:105470008091E80085FD16C08091E8008E778093CA
:10548000E800C114D10449F0F60180819181E80E51
:10549000F91EF182E08285E00FC00E947D2B8823F7
:1054A00021F30AC089918093F10001501109FFEFA7
:1054B000EF1AFF0ADACF80E0DF91CF911F910F91B1
:1054C000FF90EF90DF90CF90089520919D02309152
:1054D0009E022617370748F06115710539F42091AF
:1054E000E8002E772093E80001C0B90140E0611583
:1054F0007105A9F120919602222309F443C02530B9
:1055000009F442C02091E80023FD40C02091E8004A
:1055100022FD32C02091E80020FFE9CF4091F30046
:105520002091F20030E0342BFC01CF0161157105B0
:1055300059F02830310540F481918093F100615099
:1055400071092F5F3F4FF1CF41E02830310509F05D
:1055500040E02091E8002E772093E800C8CF411169
:10556000C9CF0AC080919602882361F0853061F02E
:105570008091E80083FD0AC08091E80082FFF2CFAD
:1055800080E0089582E0089583E0089581E0089521
:1055900020919D0230919E022617370748F0611531
:1055A000710539F42091E8002E772093E80001C0BE
:1055B000B901FC0120E06115710591F1809196021D
:1055C000882309F440C0853009F43FC08091E80089
:1055D00083FD3DC08091E80082FD2FC08091E800EE
:1055E00080FFE9CF2091F3008091F20090E0922BB0
:1055F0006115710559F08830910540F4249120938C
:10560000F1003196615071090196F2CF21E00897BF
:1056100009F020E08091E8008E778093E800CBCFFE
:105620002111CCCF0AC080919602882361F0853089
:1056300061F08091E80083FD0AC08091E80082FF5C
:10564000F2CF80E0089582E0089583E0089581E03C
:105650000895982F973058F59093E900981739F0EE
:105660007091EC002091ED005091F00003C0242FC8
:10567000762F50E021FF19C03091EB003E7F309330
:10568000EB003091ED003D7F3093ED003091EB0069
:1056900031603093EB007093EC002093ED00509359
:1056A000F0002091EE0027FF07C09F5FD3CF8F70DF
:1056B0008093E90081E0089580E008958091970249
:1056C00087FF11C08091E80082FD05C0809196029D
:1056D0008111F8CF11C08091E8008B770BC08091C9
:1056E0009602882349F08091E80080FFF8CF8091EE
:1056F000E8008E778093E80008952091E4003091CF
:10570000E50095E64091EC00842F817040FF22C0B7
:105710008091E80080FD1CC080919602882391F062
:10572000853091F08091EB0085FD10C04091E40040
:105730005091E5004217530729F39A01915011F750
:1057400084E0089582E0089583E0089581E008955B
:1057500080E008954091E80042FFDECF08950E9466
:105760001D2C0E94252CE0EEF0E08081816080837A
:10577000E8EDF0E080818F77808319BCA7EDB0E081
:105780008C918E7F8C9380818F7E80831092950286
:1057900008950F931F93CF93DF930E941D2C0E94B7
:1057A000252CC8EDD0E088818F7788838881806838
:1057B000888388818F7D888319BC1092960210920D
:1057C0009202109294021092930200EE10E0F801FF
:1057D00080818B7F808388818160888342E060E064
:1057E00080E00E94292BE1EEF0E080818E7F8083B3
:1057F000E2EEF0E080818160808380818860808338
:10580000F80180818E7F8083888180618883DF9129
:10581000CF911F910F910895E8EDF0E080818F7E88
:105820008083E7EDF0E080818160808384E082BF47
:1058300081E0809395020C94C92BE8EDF0E0808123
:105840008E7F80831092E20008951092DA00109209
:10585000E10008951F920F920FB60F9211242F931B
:105860003F934F935F936F937F938F939F93AF93E8
:10587000BF93EF93FF938091E10082FF0BC0809173
:10588000E20082FF07C08091E1008B7F8093E100FE
:105890000E949A2E8091DA0080FF1FC08091D8006C
:1058A00080FF1BC08091DA008E7F8093DA008091A8
:1058B000D90080FF0DC080E189BD82E189BD09B4B6
:1058C00000FEFDCF81E0809396020E94702805C003
:1058D00019BC109296020E947E288091E10080FF00
:1058E00019C08091E20080FF15C08091E2008E7F98
:1058F0008093E2008091E20080618093E2008091D9
:10590000D80080628093D80019BC85E0809396020D
:105910000E9482288091E10084FF30C08091E200E3
:1059200084FF2CC080E189BD82E189BD09B400FEFD
:10593000FDCF8091D8008F7D8093D8008091E100C9
:105940008F7E8093E1008091E2008F7E8093E20061
:105950008091E20081608093E2008091920288232E
:1059600011F084E007C08091E30087FD02C081E070
:1059700001C083E0809396020E9483288091E10019
:1059800083FF29C08091E20083FF25C08091E10060
:10599000877F8093E10082E08093960210929202CA
:1059A0008091E1008E7F8093E1008091E2008E7F04
:1059B0008093E2008091E20080618093E20042E007
:1059C00060E080E00E94292B8091F0008860809345
:1059D000F0000E948128FF91EF91BF91AF919F91BC
:1059E0008F917F916F915F914F913F912F910F9088
:1059F0000FBE0F901F9018951F920F920FB60F9227
:105A000011242F933F934F935F936F937F938F93C3
:105A10009F93AF93BF93CF93DF93EF93FF93C09187
:105A2000E900CF708091EC00D82FD17080FDD0E8D4
:105A30001092E9008091F000877F8093F0007894C5
:105A40000E94402D1092E9008091F00088608093C0
:105A5000F000CD2BCF70C093E900FF91EF91DF9163
:105A6000CF91BF91AF919F918F917F916F915F91F6
:105A70004F913F912F910F900FBE0F901F9018954F
:105A80001F93CF93DF93CDB7DEB7AA970FB6F894E5
:105A9000DEBF0FBECDBFE7E9F2E088E08E0F909148
:105AA000F10091938E13FBCF0E948F288091E80024
:105AB00083FF28C18091970290919802492F50E06E
:105AC0004A30510508F01EC1FA01E556FF4F0C940B
:105AD000102F803821F0823809F014C108C080915D
