:100000000C94EE020C9435030C9435030C943503D8
:100010000C9435030C9435030C9435030C94350380
:100020000C9435030C9435030C9493260C9465279B
:100030000C94CA210C9435030C9435030C943503AD
:100040000C9435030C9435030C9435030C94350350
:100050000C9435030C9423220C9435030C94350333
:100060000C9435030C9435030C9435030C94350330
:100070000C9435030C9435030C9435030C94350320
:100080000C9435030C9435030C9435030C94350310
:100090000C9435030C9435030C9435030C94350300
:1000A0000C9435030C9435030C943503BD07B3074A
:1000B000C00708080C080C0808080C080C08E10721
:1000C0000C08EB07F5070C080C080C080C080808CE
:1000D0000C080C0808080C08CE070C080C080508CA
:1000E00005080508050805080508050805080508A8
:1000F0000A080C08BD07B0070C080C080C080C080F
:100100000C080C080C080C080C080C080A080C0851
:100110000C0808080C080308030803080308030870
:1001200003080308030803080A08111711174317E7
:1001300043179017C418C418C418AE17431854189E
:100140005418B418C418C418BD186019601972196D
:1001500072196919721972197219601960196E1978
:10016000721972196E19D227F927F128F927F12887
:1001700045286828F128BF28CE2829001E001F0026
:100180002000210022002300240025002600270053
:100190002D002E0031002B0014001A00080015005D
:1001A00017001C0018000C00120013002F00300074
:1001B0003500E00004001600070009000A000B00EB
:1001C0000D000E000F003300340000002A00E10093
:1001D00000001D001B0006001900050011001000A2
:1001E000360037003800E50028000000E200E30098
:1001F000000000002C0000000000000000000000D3
:10020000E700E6000151A5003A003B003C003D003C
:100210003E003F00400041004200430044004500D2
:1002200049003900C35CC45CC55CC05CC15C0100B2
:100230000100460047004800520001004C00010048
:10024000AA00A900A800B0000100550054004A000F
:100250004B0050004F000000010001000000AC0006
:10026000AE00AB0001000100570056004D004E00EB
:1002700051000100580000000100010000000000D2
:10028000010000000000000000000000010001006B
:1002900001001E0F0500047F3F1F643214643214F6
:1002A000783C1E1E140A052223252628292A2C2DD7
:1002B0002F3032333536383A3B3D3E404243454796
:1002C000494A4C4E5051535557595A5C5E606264CE
:1002D0006668696B6D6F71737577797B7D7F8183DC
:1002E0008587898A8C8E90929496989A9C9E9FA1DD
:1002F000A3A5A7A8AAACAEAFB1B3B4B6B8B9BBBCFE
:10030000BEBFC1C2C3C5C6C7C9CACBCCCDCED0D172
:10031000D2D2D3D4D5D6D7D7D8D9D9DADADBDBDB6A
:10032000DCDCDCDCDCDDDDDDDDDCDCDCDCDCDBDB0B
:10033000DBDADAD9D9D8D7D7D6D5D4D3D2D2D1D05F
:10034000CECDCCCBCAC9C7C6C5C3C2C1BFBEBCBB5C
:10035000B9B8B6B4B3B1AFAEACAAA8A7A5A3A19FD4
:100360009E9C9A98969492908E8C8A898785838198
:100370007F7D7B79777573716F6D6B696866646279
:10038000605E5C5A5957555351504E4C4A49474547
:100390004342403E3D3B3A3836353332302F2D2CE8
:1003A0002A292826252322FFAA7F55400001010182
:1003B0000101010101010202020202020202020322
:1003C00003030303030303040404040404040505F2
:1003D00005050506060606060707070707080808B5
:1003E00008090909090A0A0A0B0B0B0C0C0C0D0D64
:1003F0000D0E0E0E0F0F0F101011111112121313FC
:100400001414151516161717181819191A1A1B1B74
:100410001C1D1D1E1E1F20202122222324242526D0
:1004200026272829292A2B2C2D2D2E2F3031323208
:10043000333435363738393A3B3C3D3E3F40414214
:10044000434445464748494A4C4D4E4F50515354FA
:10045000555658595A5B5D5E5F61626465666869AE
:100460006B6C6D6F7072737577787A7B7D7E80822E
:10047000838587888A8C8E8F91939596989A9C9E77
:10048000A0A2A3A5A7A9ABADAFB1B3B5B7BABCBE87
:10049000C0C2C4C6C9CBCDCFD1D4D6D8DBDDDFE254
:1004A000E4E7E9EBEEF0F3F5F8FAFDFF1003540092
:1004B0006F006B0079006F003600300000001E03F3
:1004C00054006F006B0079006F0020004B00650046
:1004D000790062006F006100720064000000040394
:1004E000090409023B00020100A0320904000001D6
:1004F00003010100092111010001224000070581CB
:100500000308000A09040100010300000009211189
:10051000010001226D000705820320000A1201106C
:10052000010000000836546060010001020001056E
:10053000010980A101850319012AB700150126B719
:1005400000950175108100C0050C0901A101850409
:1005500019012AA002150126A0029501751081003B
:10056000C005010906A1018505050719E029E71560
:100570000025019508750181020507190029EF156D
:1005800000250195F07501810205081901290595DD
:100590000575019102950175039101C005010906D8
:1005A000A101050719E029E7150025019508750146
:1005B00081029501750881010507190029FF1500C1
:1005C00026FF009506750881000508190129059583
:1005D0000575019102950175039101C011241FBE9B
:1005E000CFEFDAE0DEBFCDBF04B603FE27C08091B7
:1005F000270390912803A0912903B0912A03873003
:10060000904BA740B04BD1F41092270310922803CF
:100610001092290310922A0314BE84B7877F84BFE7
:100620000FB6F894A895809160008861809360006F
:10063000109260000FBEE0E0F8E3099511E0A0E041
:10064000B1E0E4E4F5E502C005900D92A43CB107E9
:10065000D9F723E0A4ECB1E001C01D92A732B207A4
:10066000E1F70E94CD230C94A02A0C9400000C9476
:100670006C060C946A0681E0089581E008950C945C
:100680003D0308950C9441031F93CF93DF9300D053
:1006900000D01F92CDB7DEB749835A836B83309168
:1006A000250289819A81311114C0662359F02223D1
:1006B00049F00E94991E182F682F89819A810E9403
:1006C000421E03C00E946D1E182F69817A81812FFE
:1006D00004C00E94991E69817A810F900F900F903B
:1006E0000F900F90DF91CF911F910C941704FC0194
:1006F000262F408151816281738184810C9444034F
:10070000CF93DF93EC0160E00E947703BE01DF919D
:10071000CF910C9442030E9433060E94C2110C94A4
:1007200037030C94390308950E944E190E949303D5
:100730002FEF84E39CE0215080409040E1F700C01F
:1007400000000C9449220F931F93CF93DF938C01E9
:1007500061E00E947703EC01B8010E943F03882307
:1007600009F44BC0B801CE010E942311882309F47B
:1007700044C0B801CE010E9470128823F1F1B80183
:10078000CE010E94C2128823C1F1B801CE010E949D
:10079000ED13882391F1B801CE010E94670F8823E1
:1007A00061F1F8018281882309F1CB358DE5D80705
:1007B000C1F050F4C115FCE5DF0781F0CF3DDC4509
:1007C000A9F40E94AA2019C0CC35EDE5DE0761F03E
:1007D000CD35DD4559F40E942C1F08C00E949403BA
:1007E0000CC00E94351F02C00E94381FC801DF9153
:1007F000CF911F910F910C943B0380E0DF91CF913B
:100800001F910F91089508950C94030481E00895B9
:100810000C940604CF93C82F0E9404048C2F0E94CE
:100820000804CF91089580E090E00895089526E4AB
:10083000829FC0011124FC012EE0729FE00DF11D8A
:100840001124E60FF11DEE0FFF1FE658FE4F8591B4
:1008500094910895880F991FFC01EE56FD4F8591E4
:1008600094910895CF93DF930E9417040E9444054A
:10087000EC018115904508F043C0C11580E4D8070C
:1008800008F0CBC0C03ED10528F5C03CD10508F02A
:10089000B3C0C83AD10578F4C53AD10508F0A4C070
:1008A000C130D10509F4ECC008F4E8C0C430D1056A
:1008B00008F0E6C0E3C0CF3BD10508F0DFC0C85A5E
:1008C000D0E0CC0FDD1FCC5DDE4F0990D881C02D6C
:1008D000D464D6C0C11590E2D90750F4C11521E007
:1008E000D20708F0CDC0C83ED10508F4C9C0C6C0C3
:1008F000C11580E3D80708F086C0CE019F707FC085
:10090000C11595E5D90708F043C0C11524E5D20704
:1009100008F09AC0C11582E5D80708F5C11591E520
:10092000D90708F07DC0CE0174E0969587957A9539
:10093000E1F783709C2F937021E030E002C0220F1A
:10094000331F9A95E2F73C68382BCF70C695C69551
:1009500080E2C89FE0011124C22BD32B91C09E01DD
:10096000237033278C2F86958695C115D34508F0C3
:100970005CC0C1E0D0E002C0CC0FDD1F2A95E2F7D9
:1009800020E2829FC0011124C82BD92BDC6878C0DB
:10099000C11529E5D207A0F4C11588E5D80708F0EC
:1009A00058C0C11596E5D90708F068C08C2F0E9481
:1009B000D8058F71C82FD0E0DC2FCC27D06260C063
:1009C000C1152AE5D20708F449C0CE019056811519
:1009D000904208F053C08D2F8F710E94D805DD27FB
:1009E000D0628F71D82B4CC0C55AD0E0CE5ADE4FA2
:1009F000C881D0E0D06444C0CE01805C91090E94DF
:100A00002A04EC013DC0CE019927D3FF03C0EC01BD
:100A1000D86C36C0EC01D06C33C0DF70D06A30C007
:100A2000DC2FCC27C16FD06A2BC0C1E0D0E002C060
:100A3000CC0FDD1F2A95E2F720E2829FC00111242E
:100A4000C82BD92BDA681CC0DC2FCC27C46FD06A26
:100A500017C0DC2FCC27C06FD06A12C08C2F8F70CC
:100A60000E94D80594E0D695C7959A95E1F7CF7086
:100A7000D0E0DC2FCC27D069C82B02C0C0E0D0E08A
:100A8000CE01DF91CF9108958238910569F1B0F4DC
:100A90008133910509F46DC048F48932910509F458
:100AA00063C08A32910509F469C0089585339105C0
:100AB00009F455C089339105B9F00895833E910535
:100AC00069F138F4803E9105B1F0823E910509F15B
:100AD0000895863E9105A9F1873E9105B9F1843EBE
:100AE000910509F064C023C02091DC0220FD4FC0B5
:100AF00021FD4DC008958091DC0280FD44C08091AD
:100B0000DD0280FF44C08091DC0284FD42C083EEA0
:100B10004DC08091DC0282FF38C0F5CF8091DC02AD
:100B200082FD33C08091DD0280FD31C0ECCF809129
:100B3000DD0281FF32C08091DC0284FD2AC087EE95
:100B400035C08091DC0283FF26C0F5CF8091DC02A6
:100B500083FD21C08091DD0281FD1FC0ECCF80911B
:100B6000DC0285FD1CC01DC08091DC0285FD19C022
:100B700016C08091DC0286FD16C017C08091DC0291
:100B800086FD13C010C089E311C082EE0FC080EE55
:100B90000DC080E00BC086EE09C084EE07C089E27C
:100BA00005C085E303C08AE201C081E390E00895B7
:100BB0009091DC0292FF0DC0282F2871283019F483
:100BC000877F846006C0282F2471243011F48B7F26
:100BD000886093FF0DC0282F2871283119F4877E73
:100BE000846106C0282F2471243111F48B7E886122
:100BF0002091DD0220FF0DC0382F3871383019F4F4
:100C0000877F816006C0382F3171313011F48E7FBB
:100C1000886021FF0DC0282F2871283119F4877EA4
:100C2000816106C0282F2171213111F48E7E8861E7
:100C300094FD877E08950C94FC1F0E94B7068FE3F5
:100C40009CE90197F1F700C000000E94B70680E020
:100C50000E94570680FF04C00E941B060C94492284
:100C600008950C941D060E940220811102C00E946A
:100C7000AA200E940D208093B8020E941520909314
:100C8000DD028093DC020E9431060E941120682F51
:100C900070E080E090E00E94441D60918B027091B2
:100CA0008C0280918D0290918E020C947C1DE82F15
:100CB000F0E0EE0FFF1FE851FD4F80819181089514
:100CC000089580EA8A95F1F7089500C008950C947C
:100CD000610608950C9469060C946906F894E82F4F
:100CE000E295EF70F0E031A1282F2F7081E090E0C5
:100CF00001C0880F2A95EAF7982F9095932391A326
:100D000092A1892B82A3789408950F931F93CF9378
:100D1000DF93C5E5D1E003E611E089910E946E06FC
:100D20000C171D07D1F780E90E946E0681E90E9429
:100D30006E0682E90E946E0683E90E946E0685E9CE
:100D40000E946E06EEEDF2E0A8EEB2E01192119272
:100D50001D921D9282E0E83EF807C1F785E00E94EF
:100D60005207DF91CF911F910F910C948B034F92FB
:100D70005F927F928F929F92AF92BF92CF92DF92BB
:100D8000EF92FF920F931F93CF93DF9395E5E92E98
:100D900091E0F92E00E010E0C0E0CC24C394D12C07
:100DA00038EEA32E32E0B32E4701D7018C91F89490
:100DB000E82FE295EF70F0E021A18F70A60102C04C
:100DC000440F551F8A95E2F7CA01922F982B91A3E1
:100DD00092A18095892382A378940E946506A6013A
:100DE000002E02C0440F551F0A94E2F7BA01609525
:100DF0007095EEEDF2E083E6482E81E0582ED0E0CB
:100E000020813181D2017D902D01872D82958F70B7
:100E100090E0DC0190968C9190E0B72DBF7002C0FD
:100E200095958795BA95E2F780FD04C0C901842B9A
:100E3000952B03C0C901862397232817390719F07A
:100E400091838083D1E03296AE16BF06C9F6EFEFEC
:100E5000EE1AFE0AD4018C910E946E060E9467066B
:100E6000CD2B0F5F1F4F0E30110509F09DCF2C2F9A
:100E700045E068EE72E08EED92E00E9453070E941A
:100E800091038C2FDF91CF911F910F91FF90EF90E5
:100E9000DF90CF90BF90AF909F908F907F905F90AA
:100EA0004F9008950895FF920F931F93CF93DF9370
:100EB000F82E092F162FD72FC42F222349F081E0B7
:100EC0008093C8010E94FC219093C7018093C601C2
:100ED0008091C8018823D9F08091C6019091C70103
:100EE0000E941422069798F0EF2DF02FA12FBD2F0E
:100EF00080E090E04C2F50E08417950734F4219166
:100F000031912D933D930196F7CF1092C801DF9157
:100F1000CF911F910F91FF9008950F931F9341E080
:100F200050E060E070E08A019B0104C0000F111FD7
:100F3000221F331F8A95D2F7C901B8010E94441DB0
:100F40001F910F910C944E19482F50E0FA013597DC
:100F5000EF33F10508F060C0EA5AFF4F0C9499296D
:100F60000E94AA2055C08091B802817F8E7F809315
:100F7000B80281E08093C90108950E94940348C09B
:100F80008091B802982F9095917090FB80F9809392
:100F9000B80291113DC0897F877F10C08091B8024F
:100FA00081FB222720F991E0922790FB81F9809321
:100FB000B802992369F18091B80281608093B802E8
:100FC00027C08091B80282FB222720F991E0922766
:100FD00090FB82F9ECCF8091B80283FB222720F9A5
:100FE00091E0922790FB83F9E2CF0E944E19809105
:100FF000DC0287FB222720F991E0922790FB87F9FA
:101000008093DC0205C0895301C08D510E948D0779
:1010100081E0089580E0FACF80E0089580E00895AF
:101020000C940E08CF93C82F8091C901882319F022
:10103000813031F02BC00E943B1F823249F504C041
:101040000E943B1F823261F48C2F0E941008811194
:1010500004C08C2F0E94A40717C081E090E014C048
:101060008C2F0E940E0881110EC0C43149F018F473
:10107000CB3049F00FC0C93219F0C83321F00AC093
:101080001092C90107C081E0817006C01092C901A9
:1010900080E002C080E0F8CFCF910895EF92FF92F8
:1010A0000F931F93CF93DF938B01682F11110AC009
:1010B000442329F0E82FF0E0E455FC4F6491762FAB
:1010C000862F75C0212F30E0E82FF0E0442321F077
:1010D000E455FC4FE491F0E046E0049FC001112488
:1010E000CFEFD0E0BE010E944F294BEA4603C0017A
:1010F000479F900D1124800F911D800F911D982FF7
:10110000990F890FAE01421B530B4E9FD0014F9F89
:10111000B00D5E9FB00D11249B2F189FA0011124CC
:10112000452F55278E01041B150B0E9FA0010F9F05
:10113000500D1E9F500D11247E01E81AF108E29E09
:101140008001E39E100DF29E100D1124212F3327F4
:10115000C21BD30BCE9F9001CF9F300DDE9F300D71
:10116000112462307105A9F048F46115710569F028
:1011700061307105C9F48B2F752F0DC06430710576
:1011800081F058F06630710579F47E2F8B2F932F04
:101190000DC0832F7B2F9E2F09C08E2F7B2F952F65
:1011A00005C08E2F732F02C07E2F852F692FDF91F0
:1011B000CF911F910F91FF90EF90089541E00E9411
:1011C0004E08089508950E94DE080895CF93DF9396
:1011D000762FE901682F842F0E94E30879836883C2
:1011E0008A83DF91CF9108958091F202282F26956E
:1011F00030E02115310519F48170826005C02B3271
:10120000310524F0817084658093F202089588E0AE
:1012100090E00C94412ACF92DF92EF92FF926B0103
:101220007C010E94F408B701A60188E090E0FF90DD
:10123000EF90DF90CF900C945F2AE2EFF2E083E032
:10124000808311828FEF8283838314826081718116
:10125000828193810C940B098091F20280FF02C07D
:101260008695089580E008959091F602933018F4E1
:101270009F5F9093F602882351F06091F202709183
:10128000F3028091F4029091F5020C940B090895F9
:1012900081E00C9434099091F602992319F0915051
:1012A0009093F602882351F06091F2027091F3025C
:1012B0008091F4029091F5020C940B09089581E05D
:1012C0000C944B0970E00C94D2116091080180914C
:1012D000F20280FF0AC08091070123E0829FC001D3
:1012E000112489509D4F0C946209809109019091BD
:1012F0000A01891780F7E82FF0E09F01220F331FC2
:10130000E20FF31FE950FD4F1182108212828F5FAE
:10131000F0CF9091F20290FF16C0909109012091B8
:101320000A01921770F4E92FF0E0DF01AA0FBB1F4A
:10133000EA0FFB1FE950FD4F8183608342839F5F6B
:10134000F0CF0C9465090895CF93DF9300D01F92DE
:10135000CDB7DEB79091F20290FF0AC09E012F5FD9
:101360003F4F0E94E6084B8169818A810E9489096A
:101370000F900F900F90DF91CF910895CF93DF934F
:10138000EC01EC81F0E0E955FD4F4491E2EFF2E031
:10139000628181810E94A4098C818F5F8C83DF919F
:1013A000CF910895CF93DF93EC01E2EFF2E0438118
:1013B00062818C810E94A4098C818F5F8C83DF9174
:1013C000CF9108950F931F93CF93DF9300D01F9277
:1013D000CDB7DEB78C018091CA0181110AC09E0190
:1013E0002F5F3F4F4FEF6FEF0E94E6088A81809397
:1013F000CA01F8018481813051F028F0823061F413
:101400004091CA010AC08091CA0140E007C06091C2
:10141000CA0140E080E003C040E080E060E00E945C
:101420008909F801848190E0019663E070E00E94F0
:10143000632984830F900F900F90DF91CF911F91BC
:101440000F910895AF92BF92CF92DF92EF92FF92E9
:101450000F931F93CF93DF9300D01F92CDB7DEB7CA
:10146000182FF62E042FE22E9091F20290FF6DC0FD
:10147000E92FE695AE2FB0E0A859BE4F8C9180932E
:1014800006029E7F923061F49E012F5F3F4F812FB5
:101490000E94E6084B8169818A810E94890943C0C4
:1014A000823019F40091F5023EC0863019F4109193
:1014B000F30239C08930D9F38931A9F5E9518E2F6A
:1014C0008170D82EE695F0E0E955FC4FA590B490D8
:1014D000C12CBB2460910B01C61618F52C2D30E0F1
:1014E000A29EC001A39E900DB29E900D112470E0AB
:1014F0000E944F29812FD11002C0860F01C0861B88
:1015000090910901290F311DA901440F551F240F86
:10151000351F29503D4F402F6F2D0E94E608C39480
:10152000D9CF0E9465091093F302F092F402009360
:10153000F502EE2051F06091F2027091F302809179
:10154000F4029091F5020E940B090F900F900F90FA
:10155000DF91CF911F910F91FF90EF90DF90CF908F
:10156000BF90AF900895E2EFF2E09181282F438180
:1015700062818CE0890F0C94220A81E00C94B30AFA
:10158000E2EFF2E09181282F4381628184EF890F9D
:101590000C94220A81E00C94C00AE2EFF2E062812E
:1015A0002CE0620F08F46FEF282F438181810C94A7
:1015B000220A81E00C94CD0AE2EFF2E062812CE095
:1015C000621B08F460E0282F438181810C94220A79
:1015D00081E00C94DC0AE2EFF2E043812CE0420F60
:1015E00008F44FEF282F628181810C94220A81E058
:1015F0000C94EB0AE2EFF2E043812CE0421B08F48A
:1016000040E0282F628181810C94220A81E00C94B1
:10161000FA0A20E00C94220AFF920F931F93CF93B3
:10162000DF93EC01F12C0FEF10E060910B01F61647
:10163000F0F4809109012F2D30E0280F311DC901F0
:10164000880F991F280F391F29503D4F70E0C8019E
:101650000E946329962F8C814091F5026091F402DB
:10166000F99E800D11240E94E608F394DECF0E94BB
:1016700065099A818C8190FF02C08F5F01C0815003
:101680008C83DF91CF911F910F91FF900895AF92BE
:10169000BF92CF92DF92EF92FF920F931F93CF935F
:1016A000DF93FC01828180FF02C00FEF01C001E0E7
:1016B00010E04AE0A42E80910B01181708F043C0F7
:1016C00080910901C12ED12CE601C80FD11DCE0198
:1016D000880F991FC80FD91FC950DD4F1982188272
:1016E0001A8234E0E32EF12CB12C8091CC018B0DC9
:1016F0008B302CF06A2D0E944129892F05C087FF6D
:1017000003C090910B01890F082E000C990BC8168D
:10171000D90691F48091F5028E9DA0018F9D500D08
:10172000112455954795559547959E016091F40272
:101730008091F3020E94E608B00EF1E0EF1AF10882
:10174000A1F61F5FB8CF0E9465098091CC010130DE
:1017500031F4811102C080910B01815007C090E0EB
:10176000019660910B0170E00E9463298093CC0187
:10177000DF91CF911F910F91FF90EF90DF90CF906D
:10178000BF90AF900895CF938091090190910A0185
:10179000891770F4E82FF0E09F01220F331FE20F4A
:1017A000F31FE950FD4F1182108212828F5FF0CF3C
:1017B000C0E060910B01C617C0F5EC2FF0E070E0BF
:1017C000CF010E94632920910901820F2091CB0152
:1017D000022E000C330B90E0E217F307CCF02091BF
:1017E0000601022E000C330B2E173F078CF09C01D4
:1017F000220F331F820F931F9C0129503D4F4091B0
:10180000F5026091F4028091F3020E94E6080BC099
:10181000FC01EE0FFF1F8E0F9F1FFC01E950FD4FD3
:10182000118210821282CF5FC4CF0E94650920917D
:1018300005018091CB01820F8093CB01909106012D
:10184000920F9093060119165CF4082E000C990B68
:1018500040910B0150E041505109841795071CF04D
:10186000219520930501CF9108958F929F92AF9279
:10187000BF92CF92DF92EF92FF920F931F93CF937D
:10188000DF938C01FC014481C42FD0E09E01DE0176
:101890000E94A7299B01AC010E94BD296B017C011C
:1018A000E0E2F0E0EC1BFD0BA5E5B0E09B01AC0134
:1018B0000E94BD294B015C019F01DF010E949F290D
:1018C0009B01AC010E94C8299B01AC012C0D3D1D60
:1018D0004E1D5F1DC501B4010E947729C22FD22F72
:1018E0002A3228F4F3E02F9F900111240DC025E542
:1018F00030E02C1B3109C901880F991F280F391FAF
:1019000037FF02C02F5F3F4F35952795C22FC095F7
:10191000F12C85E5E82EED1A80910B01F816C8F43C
:10192000F1FC02C08E2D01C08D2F909109012F2D49
:1019300030E0290F311DA901440F551F240F351F19
:1019400029503D4F4C2F6091F4020E94E608F39419
:10195000E3CF0E946509F8018481811102C091E002
:1019600003C0803219F49FEF909304019091040119
:10197000890FF8018483DF91CF911F910F91FF9020
:10198000EF90DF90CF90BF90AF909F908F90089591
:101990000F931F93CF93DF93EC0100E010E0809151
:1019A0000B01282F30E00217130724F5909109014D
:1019B0009801290F311DA901440F551F240F351F10
:1019C00029503D4F869590E04C81081719071CF46B
:1019D000442331F002C0411103C04091F50201C01F
:1019E00040E06091F4028091F3020E94E6080F5FEC
:1019F0001F4FD5CF0E9465098C8190E001968170C0
:101A000099278C83DF91CF911F910F9108957F9239
:101A10008F929F92AF92BF92CF92DF92EF92FF92FE
:101A20000F931F93CF93DF93FC018280748081E03A
:101A30008483E7EAF2E09490E6E2F3E0E491A12CFB
:101A4000F5E0BF2ECC24CA94D12CE9190E2F10E05A
:101A500080910B01A81608F0A2C0EA2CF12C22E01C
:101A6000281568F0BE9CF001BF9CF00D1124E353D3
:101A7000FE4F8091F30280838091F4028183711084
:101A80000AC0BE9CF001BF9CF00D1124E353FE4F31
:101A9000138212826AC0BE9CE001BF9CD00D11244B
:101AA000C353DE4F8B818823F9F081508B832FEF56
:101AB000829FC00111246C8170E00E944F29FB01BC
:101AC000FF27E955FD4F8491E82FE9192FEFE29F99
:101AD000C0011124B8010E944F298091F502689F2E
:101AE000B00111247A8341C00E941C2A2091F50282
:101AF0002695215830E0A901440F551F322F222787
:101B0000240F351F232F33278217930774F582E0A4
:101B1000881588F40E941C2AB6010E9463298883D4
:101B20000E941C2A2091F4022695622F70E00E94E8
:101B30006329280F2983BE9CF001BF9CF00D11245E
:101B4000E353FE4F12828091F502843120F0893CEC
:101B500018F088EC01C084E1BE9CF001BF9CF00D40
:101B60001124E353FE4F84838383809109019701FD
:101B7000280F311DC901880F991F280F391F2950BF
:101B80003D4FBE9CF001BF9CF00D1124E353FE4F6E
:101B90004281618180810E94E608A39459CFDF9140
:101BA000CF911F910F91FF90EF90DF90CF90BF905A
:101BB000AF909F908F907F900C946509E2EFF2E0D8
:101BC00080818E7F808360817181828193810E9478
:101BD0000B09109207022FEF80E792E0215080401E
:101BE0009040E1F700C000000C9465096091F2029A
:101BF000669570E04BE050E08CE091E00E942C2A6A
:101C0000892B19F481E0809307020E94FC219093B4
:101C100000028093FF0108959091F20290FF35C079
:101C20009170811102C0926006C08B3210F09465F1
:101C300002C0880F982B9093F202662351F06091B6
:101C4000F2027091F3028091F4029091F5020E94E9
:101C50000B096091F202669570E04BE050E08CE079
:101C600091E00E942C2A892B19F01092070202C0E1
:101C70000E94F60D81E0809302024091F50260918E
:101C8000F4028091F3020C94090B0895682F90914F
:101C9000F202969581E0890F8B3208F081E00C9476
:101CA0000C0E81E00C94460E682F9091F2029695EE
:101CB0008FEF890F09F48AE20C940C0E81E00C94EA
:101CC000540E61E00C940C0EE2EFF2E08081816032
:101CD000808386950C94610E8091F20280FD0C94B5
:101CE000DE0D0C94640E60E00C940C0E80910502E5
:101CF00081112EC00E940220811104C00E94AA20DE
:101D00000E941D090E9407096093F2027093F3027A
:101D10008093F4029093F5026E7F61F40E941D0996
:101D20000E9407096093F2027093F3028093F40219
:101D30009093F5020E94F408109207028091F2023B
:101D400080FF03C086950E94730E81E08093050298
:101D500008950F931F93CF93DF93809107028823F9
:101D600009F495C080910602E091F202E695E81B25
:101D7000E0930102823049F4F0E0ED55FD4FE4912B
:101D8000CE2FD0E00EEB19E059C0863049F4F0E0D8
:101D9000E056FD4FE491CE2FD0E002ED19E04EC0A9
:101DA000893051F4E695F0E0E356FD4FE491CE2FF3
:101DB000D0E00CE01BE042C08F3051F4E695F0E03B
:101DC000E656FD4FE491CE2FD0E007E41BE036C08D
:101DD000853149F4F0E0E956FD4FE491CE2FD0E093
:101DE00003EC1BE02BC08831D9F0833239F4E5E9EC
:101DF000F2E0C591D49102EE19E020C08432A9F03E
:101E00008532C1F48E2F63E00E943529E92FF0E07E
:101E1000EE56FD4FE491CE2FD0E007E01DE00EC05E
:101E2000C8E2D0E005E31CE009C0C4EFD1E008EC53
:101E30001CE004C0C0EDD7E002EE18E08091020281
:101E4000882361F0109202020E94FC21909300020C
:101E50008093FF0110920402109203020E94FC2161
:101E6000E091FF01F09100028E1B9F0B8F3F9F4777
:101E700070F4EC0FFD1FF0930002E093FF018FEF71
:101E800091E0F801DF91CF911F910F910994DF91BB
:101E9000CF911F910F910895882311F0FA0101C08D
:101EA000FB010994CF93DF93C82FD62F0E942C09F2
:101EB0008C1740F00E942C098D1720F4DF91CF91F0
:101EC0000C94510E8C2FDF91CF910C94610E1F93C7
:101ED000CF93DF93FB011281112309F4C1C0EC0100
:101EE0000E943B1F8272CD3CFCE5DF0709F49BC0DA
:101EF00008F043C0C73CECE5DE0709F480C0D8F425
:101F0000C43C9CE5D90709F46DC038F4C33CDC45FA
:101F100009F0A7C00E946C0E6BC0C53C9CE5D907B8
:101F200009F468C0C63CDC4509F09BC04AEC5AE0A5
:101F30006DEB7AE05BC0CA3CFCE5DF0709F469C0E1
:101F400070F4C83CECE5DE0709F45EC0C93CDC4532
:101F500009F087C049ED5AE068EE7AE047C0CB3C13
:101F60009CE5D90709F45AC0CC3CDC4509F079C09E
:101F70004FE559E068E479E039C0C23DFCE5DF0790
:101F800009F45EC098F4CF3C9CE5D90709F452C02F
:101F900008F44EC0C03DFCE5DF0709F44EC0C13D6A
:101FA000DC4509F05EC06EE089E057C0C53D9CE5A8
:101FB000D90709F44BC058F4C33DFCE5DF0709F429
:101FC00042C0C43DDC4509F04CC088E143C0C63D79
:101FD0009CE5D907F1F1CE35DD4509F042C06AE252
:101FE00085E23BC04EE55EE061E57EE00E944C0F7D
:101FF00010E037C041E55EE06EE57EE0F7CF4DEBE7
:102000005AE06AEC7AE0F2CF48EE5AE069ED7AE005
:10201000EDCF46E05BE067EF7AE0E8CF47EF5AE0CC
:1020200066E07BE0E3CF48E459E06FE579E0DECF9E
:1020300081E010C065E082E010C068E086E00DC07D
:1020400064E18FE00AC067E185E107C062E289E1EF
:1020500004C083E20E94610ECBCF0E94520FC8CF12
:1020600011E0812FDF91CF911F91089586E090E0DC
:102070000C94392A682F86E090E00C944D2A8091C8
:10208000150384708163809315030C943A100E94A9
:102090000220811104C00E94AA200E943F100E94C9
:1020A000361080931503282F26952695269530E027
:1020B0002730310524F08770806380931503809169
:1020C000150380FF04C086958695869501C080E043
:1020D0000C94581120911503822F8695869586952C
:1020E000482F50E04630510554F48F5F982F990FD8
:1020F000990F990F822F8770892B809315038091F8
:1021000015038160809315030E943A108091150396
:102110008695869586950C94581180911503982F75
:10212000969596959695A1F0915E990F990F990FB6
:102130008770892B80931503887F91E009F490E0E4
:102140008091150390FB80F9809315030E943A104B
:10215000809115038695869586950C9458118091EB
:10216000150380FD13C0816080931503813019F43D
:1021700089E080931503809115030E943A108091A5
:1021800015038695869586950C945811089580912F
:10219000150380FF08C08E7F809315030E943A10BC
:1021A00080E00C94581108958091150380FD0C94E3
:1021B000C7100C94AF1090911503892F86958695C2
:1021C00086958F5F8F719770873038F4880F880FEE
:1021D000880F892B8093150302C09093150380917B
:1021E0001503887F91E009F490E08091150390FB3E
:1021F00080F9809315030E943A108091150386950B
:10220000869586950C945811873008F086E0909159
:1022100015039770282F220F220F220F922B9093D5
:102220001503987F21E009F420E09091150320FB2D
:1022300090F9909315030C9458110E940411809109
:1022400015030C943A109C01FB018281882349F10B
:102250002E3BFCE53F07C9F040F42C3BECE53E0784
:1022600069F02D3B3C4561F00895203C9CE5390721
:1022700091F070F0213C3C4589F0089586E001C062
:1022800080E00E941D1180E008950E948D10FBCF18
:102290000E946A10F8CF0E94D410F5CF0E94DB1084
:1022A000F2CF81E00895279A2F9808952F980895E6
:1022B000CF92DF92EF92FF92CF93C82F873050F4E6
:1022C000811109C080918000877F809380000E94E7
:1022D000561106C0C6E0809180008860809380001F
:1022E0002C2F30E0AFEFBFEF0E94A72926E030E0AF
:1022F00040E050E00E947729B42FA32F922F882727
:10230000492F5A2F6B2F7727CA014C3724E15207E8
:1023100028F469E070E00E944F2929C0DB01CA015E
:102320008A50974DAF4FBF4F6627782F892F9A2F2E
:1023300025EF38E241E050E00E94772969017A01F7
:10234000CA01B9010E9425299B01AC01C701B60150
:102350000E942529BB27A92F982F872F009721E0BE
:10236000A207B10511F0BC0102C06FEF7FEF7093BF
:102370008D0060938C00CF91FF90EF90DF90CF9015
:10238000089508950E9453118AE08093800089E1A6
:10239000809381008FEF9FEF90938700809386005A
:1023A0000C944710879A21B32F7731B330684FB719
:1023B000F894FC01CB01880F991F680F791F6E0FED
:1023C0007F1FE617F70789F0819198E031BB000085
:1023D00000C087FF21BB880F000000C000C000C004
:1023E00021BB00C09A9591F7ECCF4FBF8FE594E0E9
:1023F0000197F1F700C0000008950F931F93CF934A
:10240000DF93C42FD22FFC0182818823C9F040932F
:102410000A020E94FC21909309028093080280E244
:102420008C0F883008F057C0C77081E001C0880F5A
:10243000CA95EAF7DF91CF911F910F910C94D016B6
:1024400080910A02481330C08091080290910902DD
:102450000E941422883C910538F510E21D0FCD171B
:10246000B9F080E28C0F883040F4C77081E001C081
:10247000880FCA95EAF70E94D716183028F581E030
:102480009D2F977001C0880F9A95EAF70E94D01689
:10249000802F0E94C7161830F0F4D77081E001C079
:1024A000880FDA95EAF70AC080E28C0F883098F43A
:1024B000C77081E001C0880FCA95EAF7DF91CF911C
:1024C0001F910F910C94D716802FDF91CF911F9100
:1024D0000F910C94C716DF91CF911F910F91089522
:1024E0000F939C01CB01243F4CE5340731F188F474
:1024F000293DFCE53F07D9F02A3D4CE5340779F149
:10250000283D3C45A9F506E221EE41EE68ED7CE56B
:102510002BC0263FFCE53F07E1F0A8F0273F3C45F4
:1025200039F507E225EE46EE67EF7CE51DC007E2D0
:1025300025EE45EE69ED7CE517C006E221EE40EEA2
:1025400064EF7CE511C007E225EE44EE65EF7CE523
:102550000BC006E221EE42EE66EF7CE505C008E224
:1025600021E045EE6AED7CE50E94FD1180E008C0A7
:10257000FC018281882319F010920A0201C081E0D7
:102580000F910895CF93DF93EC01FB0182818823A3
:1025900009F41FC1C230FCE5DF0708F41BC1C631D6
:1025A0009CE5D90738F09E012B5F3C452930310569
:1025B00008F010C10E9415209093DD028093DC0288
:1025C000C031ECE5DE0709F4C3C008F041C0C830F3
:1025D0008CE5D80709F49AC0F0F4C430ECE5DE07C6
:1025E00009F487C068F4C2308CE5D80709F477C0D5
:1025F000C330DC4509F0E3C08091DC02826076C024
:10260000C630ECE5DE0709F46EC008F07BC08091AF
:10261000DC0288606BC0CC308CE5D80709F485C03B
:1026200068F4CA30ECE5DE0709F474C008F079C03C
:102630000E944E198091DC02806858C0CE308CE533
:10264000D80709F476C008F07FC08091DC028BC007
:10265000CC3FECE5DE0709F44FC018F5C3318CE53B
:10266000D80709F47DC078F4C131ECE5DE0709F440
:1026700073C0C231DC4509F0A2C00E944E1980919E
:10268000DC028F7733C0C5318CE5D80709F472C0FE
:1026900008F486C0CB3FDC4509F091C08091DD0293
:1026A0003EC0C115FDE5DF0709F45FC058F4CE3F19
:1026B0009CE5D90709F444C008F43FC08091DD02CD
:1026C00082602DC0C230FDE5DF0709F475C008F453
:1026D0005DC0C330DD4509F072C080E06EC08091FE
:1026E000DC02816003C08091DC0280618093DC02A7
:1026F00066C08091DC0211C08091DD02826080930F
:10270000DD025DC08091DC028062F0CF8091DC024E
:102710008064ECCF8091DC0288608460E7CF8160C8
:10272000EECF8091DC028E7FE1CF8091DC028D7F45
:10273000DDCF8091DC02877FD9CF8091DD0218C088
:102740008091DD028D7FDBCF8091DC028F7ECECF4A
:102750008091DC028F7DCACF8091DC028F7BC6CF57
:102760008091DC02877F8B7FC1CF8091DD028D7FDE
:102770008E7FC5CF8091DC0282FB222720F991E079
:10278000922790FB82F990FB83F9B0CF8091DD0214
:10279000982F909591708E7F892B90FB81F9AFCF08
:1027A0000E944E198091DC0287FB222720F991E0DC
:1027B000922790FB87F99ACF81E00E94AC2080910C
:1027C000DC029091DD020E9426200E944E1980E0DA
:1027D00001C081E0DF91CF910895CF93DF938631DF
:1027E0009C4541F5EB010E943B1F982F8A81209167
:1027F000170130911801882379F09A7A81E009F461
:1028000080E080930B02911102C069E201C065E390
:10281000C9010E9447210AC080910B02811102C0A8
:1028200069E201C065E3C9010E9452210E948D1F27
:1028300080E001C081E0DF91CF9108959093110273
:10284000809310020895E0911002F09111023097E8
:1028500021F00190F081E02D099480E00895E0914D
:102860001002F0911102309799F020912301222358
:1028700059F02091DC0227FF07C0DC012C91119652
:102880002C93119725E02C930280F381E02D09947D
:10289000089520910E0230910F022817390771F028
:1028A00090930F0280930E02E0911002F0911102BA
:1028B000309721F00680F781E02D0994089520914A
:1028C0000C0230910D022817390771F090930D0218
:1028D00080930C02E0911002F0911102309721F0E8
:1028E0000084F185E02D099408950E9408226093E8
:1028F000210270932202809323029093240260931A
:102900001D0270931E0280931F029093200208956F
:1029100085B7806885BF85B7806885BF089581E0E9
:1029200008950C948F1408950C9493140C9493149C
:102930000C9496140C9493140C949A140C94931471
:102940000E9488148AEF9FE10E946D220E949E14CB
:102950000C949C140E9494140C9493140E94F321E0
:102960000E9485060E9447100E94760E0C949814CF
:102970006F927F928F929F92AF92BF92CF92DF928F
:10298000EF92FF920F931F93CF93DF93CDB7DEB7F4
:102990002A970FB6F894DEBF0FBECDBF0E94B706D0
:1029A00081110E94751433E1832E32E0932E00E0F2
:1029B00010E0C02E802F0E9457065C01F401619048
:1029C00071904F016826792661147104B1F40F5F8C
:1029D0001F4F0530110569F78FEF89838A831B82AA
:1029E0000E94FC218160782F9D838C8349815A81CC
:1029F0006B818D810E9470153AC08091B80281FD73
:102A00000E946006D12CEE24E394F12CC3018E21A8
:102A10009F21892B29F10E9491148823A9F0DE823D
:102A2000CF82AE20BF2081E0AB2809F480E0888708
:102A30000E94FC218160782F9A8789874E815F816F
:102A400068858A850E947015000F111FF801ED5EE0
:102A5000FD4F80819181E826F926F182E08207C04E
:102A6000D394EE0CFF1CFEE0DF12D0CFB0CF0E945B
:102A7000A90E0E94C1110E9423149091120289177D
:102A8000D1F00E942314809312022A960FB6F89474
:102A9000DEBF0FBECDBFDF91CF911F910F91FF9091
:102AA000EF90DF90CF90BF90AF909F908F907F90EE
:102AB0006F900C940A042A960FB6F894DEBF0FBEEE
:102AC000CDBFDF91CF911F910F91FF90EF90DF90DD
:102AD000CF90BF90AF909F908F907F906F90089510
:102AE000DF92EF92FF920F931F93CF93DF93CDB7B7
:102AF000DEB72B970FB6F894DEBF0FBECDBFF42E16
:102B0000052F162FE72ED82E61110E945B1FFE01A4
:102B1000319686E0DF011D928A95E9F77E2D4F2DD3
:102B2000502F612F8D2D9E810E94071C2B960FB672
:102B3000F894DEBF0FBECDBFDF91CF911F910F91F3
:102B4000FF90EF90DF900895FC01808191810E94B9
:102B5000DB1E0895CF93882309F4A1C0C82F8238C3
:102B6000C1F40E94231481FD9AC069E3809117018A
:102B7000909118010E9447210E948D1F2FEF81EE36
:102B800094E0215080409040E1F700C0000069E3EC
:102B900019C0833801F50E94231480FD80C063E5CD
:102BA00080911701909118010E9447210E948D1F6A
:102BB0002FEF81EE94E0215080409040E1F700C07B
:102BC000000063E580911701909118010E94522145
:102BD000CF910C948D1F8438C1F40E94231482FD80
:102BE0005EC067E480911701909118010E9447210F
:102BF0000E948D1F2FEF81EE94E021508040904085
:102C0000E1F700C0000067E4DDCF8CEF8C0F813A64
:102C1000F8F48C2F0E941208811141C06C2F809112
:102C20001701909118010E94C720882349F06C2F4A
:102C300080911701909118010E9452210E948D1FCE
:102C40006C2F80911701909118010E944721C0CFED
:102C500080E28C0F883048F4C77081E001C0880F93
:102C6000CA95EAF70E943E1FB3CFEBE5EC0FE330C5
:102C700040F4F0E0EF53FE4F808190E0CF910C9450
:102C80004914C85AC73158F4EC2FF0E0EE0FFF1F7B
:102C9000ED56FE4F80819181CF910C945F14CF91BE
:102CA0000895882309F45BC0682F823879F40E9464
:102CB000231481FF54C069E380911701909118019A
:102CC0000E9447210E948D1F69E310C08338B1F430
:102CD0000E94231480FF43C063E580911701909107
:102CE00018010E9447210E948D1F63E58091170102
:102CF000909118010E9452210C948D1F843879F410
:102D00000E94231482FF2BC067E4809117019091E9
:102D100018010E9447210E948D1F67E4E7CF8CEFC6
:102D2000860F813A18F380E2860F883048F4677086
:102D300081E001C0880F6A95EAF70E94441FDCCF4A
:102D40008BE5860F833020F480E090E00C944914EA
:102D5000685A673120F480E090E00C945F14089585
:102D60001F93CF93DF93182FEB010E94AA15209792
:102D700041F08FE99FE00197F1F700C00000219733
:102D8000F6CF812FDF91CF911F910C94511689338B
:102D900019F060E070E002C060E570E00C94B016DD
:102DA000882321F00E943E1F0C948D1F08958823D4
:102DB00021F00E94441F0C948D1F0895CF92DF9242
:102DC000EF92FF920F931F93CF93DF937C01062F17
:102DD000C72FFC01D281158112951F700E94131F0D
:102DE000882399F0DD2389F08C2F807F803421F0B7
:102DF00080E2800F883048F082E00E94DD1F0E9450
:102E0000131F91E0D82ED92601C0D12CCC2EC2940C
:102E10008FE0C8228C2D90E0FC01EB56FF4F0C9404
:102E200099298C2F807FCF70882311F0C295C07FA5
:102E3000DD2399F0CC2309F482C180E2800F883031
:102E400010F0011104C08C2F0E943E1F03C08C2F74
:102E50000E944E1F0E948D1F72C1802F0E9451162A
:102E6000CC2309F491C180E2800F883010F0011169
:102E700004C08C2F0E94441F03C08C2F0E94541F3B
:102E80000E948D1F81C18C2F807FCF70803211F006
:102E9000C295C07F002319F00130C9F022C0DD23A4
:102EA00071F0112341F0113031F40E946E1F8C2B10
:102EB0000E94761F69C10E946E1F8C2B1DC01123BA
:102EC00019F0113009F460C10E94831F25C0DD2371
:102ED00021F0163008F058C10EC0153008F054C16A
:102EE0001BC0DD2361F0112331F0F701858180FFE4
:102EF00026C18F7085838C2F0E94D01645C1112367
:102F000059F0093309F02CC1FFEF27EE83E0F150AF
:102F100020408040E1F722C18C2F0E94D71634C197
:102F20008C2F86958695837019F0813061F02CC1C5
:102F3000DD2321F0802F9C2F937002C080E090E071
:102F40000E94491429C1DD2321F0802F9C2F93700A
:102F500002C080E090E00E945F141EC18C2F83703D
:102F600009F045C0D11114C1402F429546954770D4
:102F7000440F440F602F6F70862F90E0A0E0B0E008
:102F8000042E04C0880F991FAA1FBB1F0A94D2F7F2
:102F900004FF10C00FE010E020E030E004C0000F9C
:102FA000111F221F331F4A95D2F7009510952095C7
:102FB000309503C000E010E09801C695C695C37037
:102FC000BC01CD01602B712B822B932BC23049F0B9
:102FD00058F4C13019F00E94581DDAC00E94461DF5
:102FE000D7C00E946A1DD4C00E94441DD1C0DD23F9
:102FF00019F08C2F817001C08695882309F4C8C010
:10300000402F429546954770440F440F602F6F70D4
:10301000862F90E0A0E0B0E0042E04C0880F991F36
:10302000AA1FBB1F0A94D2F704FF10C00FE010E0E4
:1030300020E030E004C0000F111F221F331F4A950B
:10304000D2F7009510952095309503C000E010E070
:103050009801C695C695C370BC01CD01602B712B3C
:10306000822B932BC23049F058F4C13019F00E94E2
:103070001D1E8EC00E940B1E8BC00E942F1E88C07A
:103080000E947E1D85C0CF70DD2339F08C2F0E94F9
:10309000A41D802F0E94D0167BC0802F0E94D716BF
:1030A0008C2F0E94C51D74C0023F01F128F4003F1F
:1030B00041F0013FA1F03FC0033FF9F0043F39F177
:1030C0003AC0DD2341F0153008F05EC08C2F8F71BF
:1030D0000E94EA1D59C0163008F056C0F7CFDD2314
:1030E00039F08C2F8F710E94A41D4EC0DD23C9F3CF
:1030F0008C2F8F710E94C51D47C0DD2329F08C2FB6
:103100008F710E948F1D40C00E948A1D3DC0DD232B
:1031100049F0CF718C2F0E94A41D63E08C2F0E9478
:10312000C21F32C081E00E94DD1F123068F182E0D0
:103130000E94DD1F29C0DD2331F0112391F2802F81
:103140000E94AA1521C0112399F2093349F49FEF77
:10315000E7EEF3E09150E040F040E1F700C00000FE
:10316000802F0E94511610C04C2F4F70602FC70146
:103170000E9413040E94B51C0FC04C2F4F70602F8B
:10318000C7010E94160408C088EF8C0D843020F41B
:103190000E9423140E940A04DD20C9F00E940F1F20
:1031A00080FD15C0F70112820E94091F0E94A41D14
:1031B000C7010E9408190E94091FDF91CF911F913A
:1031C0000F91FF90EF90DF90CF900C94C51DDF9191
:1031D000CF911F910F91FF90EF90DF90CF900895C6
:1031E0000F931F93CF93DF93EC01688179818A81DC
:1031F0000E94E61E8C010E94411E0E94321DB801F1
:10320000CE010E94DE16DF91CF911F910F9108959C
:10321000CF93DF93EC01988189812B813C81232B13
:1032200031F08F3F31F481E09F3F19F403C081E01A
:1032300001C080E080FD19C0CE010E94A30381116E
:103240000CC00E94131F882381F08A81882369F0B3
:1032500082E0DF91CF910C94DD1FCE010E94F01827
:10326000CE01DF91CF910C948003DF91CF9108952F
:1032700080E090E00E94491480E090E00E945F149A
:103280000E945B1F0E946B1F0C948D1F8091170181
:10329000909118010E945D210C9438190E944B1FD7
:1032A0000C944619E92FE295EF704E2F50E0FA0189
:1032B0003297EE30F105B0F4EB55FF4F0C9499299D
:1032C000803F91F018F4883E68F40EC0843F51F4BA
:1032D0000BC0883E48F0813F29F406C093FB882745
:1032E00080F9089580E0089581E008950E94DB1E32
:1032F0000E9452190895CF93DF9300D000D01F92FF
:10330000CDB7DEB70F900F900F900F900F90DF9119
:10331000CF910895CF93DF9300D000D000D0CDB7E8
:10332000DEB726960FB6F894DEBF0FBECDBFDF9195
:10333000CF9108951F93CF93DF93C091260216E09B
:1033400080912702C81799F0D0E01C9FF0011D9FC3
:10335000F00D1124E85DFD4F408151816281738140
:10336000848195810E948A192196C770E9CFDF91E7
:10337000CF911F9108954091580250915902609148
:103380005A0270915B0280915C0290915D020C94F4
:103390008A190F931F93CF93DF9380915D028295DB
:1033A0008F7009F05DC080915A02882309F458C0DB
:1033B0008091260210912702609158027091590263
:1033C000C0915B02D0915C0291E06F3F09F090E008
:1033D000292F06E0811709F443C0209721F07F3F91
:1033E00021F030E003C031E001C0322F90E030FD29
:1033F00034C0089FF001099FF00D1124DF01A85D82
:10340000BD4F11963C911197371327C03C9136134D
:1034100024C012963C91129731111FC013964D9102
:103420005C9114974C1B5D0B483C5105B0F48091A6
:103430005D028F70806180935D02E35DFD4F80814E
:103440008F708061808388E592E00E940819DF9187
:10345000CF911F910F910C949A1901968770BACF52
:10346000DF91CF911F910F9108959F92AF92BF92DC
:10347000CF92DF92EF92FF920F931F93CF93DF9340
:10348000CDB7DEB761970FB6F894DEBF0FBECDBFE4
:103490008C0185E0F801DE011D9601900D928A9560
:1034A000E1F7F80140815181E280909158026091EA
:1034B000590220915B0230915C022115310531F0F7
:1034C0006F3F31F481E09F3F19F403C081E001C0F8
:1034D00080E0F82FF1709F2E80FD46C1F801A38097
:1034E000B48088E5C82E82E0D82EF0905A02F5010B
:1034F000E21BF30BFF2009F4DFC080915D02E83C82
:10350000F10508F09BC0282F207F09F052C0561308
:1035100013C0491311C0FE2CE1100EC08F708061E2
:1035200080935D020E94BB19C6010E940819809118
:103530005D02F801858358C1AB2831F05F3F31F45B
:1035400081E04F3F19F403C081E001C080E080FDBD
:1035500003C081E08E2502C080E090E0F82FF1707A
:10356000FF2E80FF1CC0809126022091270236E0AA
:10357000821709F417C190E0389FF001399FF00DD0
:103580001124E85DFD4F6181561306C0608146132A
:1035900003C06281E61203C001968770E9CFFE2C5A
:1035A000EE2009F421C180915D02816080935D026B
:1035B0005AC0561306C0491304C0E11002C0F801F6
:1035C0009FC04D875E878D859E850E9476198823D2
:1035D00079F1EE2069F120915D02822F82958F7042
:1035E00090E0029774F08091580290915902988768
:1035F0008F831986BB86AA862C87CE0107960E94E8
:10360000081986E0F801A8E5B2E001900D928A95CC
:10361000E1F70E94C9190E94BB190DC0561729F184
:103620004D875E878D859E850E94761981112CC0FD
:10363000C8010E940819FF24F394D6C0282F207FC8
:1036400069F77A2DB98AA88A6E2D89890E947B191B
:1036500088E592E00E94081986E0F60111928A95A9
:10366000E9F70E94BB19F12CBFC04913D9CFE11073
:10367000D7CFF8018583C8010E94081986E0F601BA
:1036800011928A95E9F7B0C0EE2091F220915D0287
:10369000822F82958F7090E002970CF4B2CF8091C8
:1036A0005802909159029A8389831B82BD82AC8211
:1036B0002E83CE010196A3CFE83CF10508F047C068
:1036C000FE2CEE2009F4B4CF561330C049132EC09F
:1036D00020915D0220FD21C0822F82958F70482F9E
:1036E00050E041155105C9F0F80125834F305105CF
:1036F00041F08F5F982F9295907F822F8F70892B4A
:103700008583C8010E94081986E0F801A8E5B2E0A7
:1037100001900D928A95E1F742C086E0F801A8E594
:10372000B2E001900D928A95E1F75EC04D875E8709
:103730008D859E850E947619811163CF80915D02EF
:10374000816080935D02C8010E9408194DC07A2DE6
:10375000B98AA88A6E2D89890E947B1986E0F601B4
:1037600011928A95E9F71BC0EE2009F461CF4D87CD
:103770005E878D859E850E947619F82E882309F430
:1037800057CF86E0F801A8E5B2E001900D928A9546
:10379000E1F788E592E00E94A4150E94C9190E94F1
:1037A000BB1922C04D875E878D859E850E94DB1EDA
:1037B000292F22952F70223028F49F7039F0811123
:1037C00005C00BC0243028F49F7049F4805E883017
:1037D00020F0C8010E9408199F2CF92C05C0F8019F
:1037E0009581907F99F7F9CF8F2D61960FB6F89458
:1037F000DEBF0FBECDBFDF91CF911F910F91FF9024
:10380000EF90DF90CF90BF90AF909F9008951F935F
:10381000CF93DF93CDB7DEB72C970FB6F894DEBF0A
:103820000FBECDBF4F83588769877A878B879C8768
:10383000CE0107960E94351A8823D1F09F81888592
:103840002A853B85232B31F08F3F31F481E09F3F68
:1038500019F403C081E001C080E080FD47C04F81C2
:10386000588569857A858B859C850E948A193EC01A
:1038700086E0FE013796DE01119601900D928A9541
:10388000E1F7FF81E8856A857B856115710531F077
:10389000EF3F31F481E0FF3F19F403C081E001C044
:1038A00080E080FD23C02091270230E0C90101960D
:1038B000877099274091260250E084179507F1F10F
:1038C000F983EA837D836C8396E0929FD001939F76
:1038D000B00D1124A85DBD4FFE01319601900D92EF
:1038E0009A95E1F7809327020E949A1916E0809139
:1038F000260290912702891771F1189FC0011124A7
:10390000885D9D4F0E94351A882329F1E091260297
:103910001E9FF0011124E85DFD4F408151816281BD
:103920007381848195810E948A198091260290E09A
:1039300001968770992780932602D9CF0E944E194D
:103940001092270210922602E8E5F2E086E0DF01FD
:103950001D928A95E9F72C960FB6F894DEBF0FBE3C
:10396000CDBFDF91CF911F910895EF92FF920F93FA
:103970001F93CF93DF938C01892B09F46CC0F12C3A
:10398000EE24E394E8012196F8018491843740F411
:10399000843008F051C0813081F0823019F15BC071
:1039A000853709F444C0A8F19CE7980F903708F0D8
:1039B00052C08F770E94511641C00E5F1F4FFE010B
:1039C000849190E2980F983050F48770FE2D01C0DA
:1039D000FF0F8A95EAF78F2F0E945E1F14C00E9486
:1039E000AA152DC00E5F1F4FFE01849190E2980F23
:1039F000983060F48770FE2D01C0FF0F8A95EAF7BA
:103A00008F2F0E94641F0E948D1F19C00E945116A3
:103A100016C00E5F1F4FFE01C491CC2381F08FE9C9
:103A20009FE00197F1F700C00000C150F6CF0E5F94
:103A30001F4FFE01F49003C00E94AA158E018F2D26
:103A4000882309F49FCFEFE9FFE03197F1F700C039
:103A500000008150F5CFDF91CF911F910F91FF9022
:103A6000EF900895089508950C94331D0C94341D1F
:103A70000E94361D60938F02709390028093910292
:103A8000909392020C9438190C94381D0F931F9345
:103A900000918F0210919002209191023091920238
:103AA000602B712B822B932B1F910F910C94381D3F
:103AB0000F931F9300918F02109190022091910219
:103AC0003091920260237123822393231F910F91DF
:103AD0000C94381D0F931F9300918F021091900248
:103AE00020919102309192026027712782279327BB
:103AF0001F910F910C94381D0C94331D0E947C1D56
:103B000060938B0270938C0280938D0290938E024F
:103B10000C94381960E070E0CB010C947E1D0F937B
:103B20001F9341E050E060E070E08A019B0104C017
:103B3000000F111F221F331F8A95D2F7C901B80148
:103B40001F910F910C947E1D0F931F9341E050E045
:103B500060E070E004C0440F551F661F771F8A9510
:103B6000D2F780918B0290918C02A0918D02B0913E
:103B70008E028A019B01082B192B2A2B3B2BC90192
:103B8000B8011F910F910C947E1D0F931F9341E07C
:103B900050E060E070E004C0440F551F661F771FBF
:103BA0008A95D2F7409550956095709580918B02DB
:103BB00090918C02A0918D02B0918E028A019B019E
:103BC000082319232A233B23C901B8011F910F9110
:103BD0000C947E1D0F931F9341E050E060E070E075
:103BE00004C0440F551F661F771F8A95D2F7809136
:103BF0008B0290918C02A0918D02B0918E028A016D
:103C00009B01082719272A273B27C901B8011F91C3
:103C10000F910C947E1D0F931F9300918B021091B6
:103C20008C0220918D0230918E02602B712B822BA1
:103C3000932B1F910F910C947E1D0F931F93009156
:103C40008B0210918C0220918D0230918E026023A4
:103C50007123822393231F910F910C947E1D0F9348
:103C60001F9300918B0210918C0220918D02309154
:103C70008E0260277127822793271F910F910C9442
:103C80007E1D08952EE0929F800D1124E82FE69569
:103C9000E695E695877051E001C0550F8A95EAF7E1
:103CA00085E0E89FF0011124E25AFD4F20E030E06A
:103CB00070E04081CB01022E02C0969587950A9450
:103CC000E2F78170819584278523842781932F5F74
:103CD0003F4F2530310569F708952EE0929F800D02
:103CE0001124682F669566956695982F977085E0E4
:103CF000689FB001112440E050E080E0FB01E40F38
:103D0000F51FE25AFD4F208130E0092E02C03695A2
:103D100027950A94E2F721703327042E01C0220F61
:103D20000A94EAF7822B4F5F5F4F4530510531F718
:103D30000895BF92CF92DF92EF92FF920F931F935D
:103D4000CF93DF938C01C0908B02D0908C02E090D7
:103D50008D02F0908E0280918F0290919002A0913E
:103D60009102B0919202C82AD92AEA2AFB2ACFE10D
:103D7000D0E0D701C6010C2E04C0B695A795979543
:103D800087950A94D2F780FD04C0219790F7B12C53
:103D900007C0BC2EB8018C2F0E9432040197A9F3F2
:103DA0008B2DDF91CF911F910F91FF90EF90DF90BE
:103DB000CF90BF900895CF93DF93EC010E94991E9E
:103DC000BE010E943204DF91CF9108951F93CF93DB
:103DD000DF93EB0190912502992321F0CB010E9402
:103DE000DB1E13C0882349F0CB010E94991E182FB7
:103DF000682FCE010E94421E04C0CB010E946D1E9E
:103E0000182FBE01812F0E943204DF91CF911F91A4
:103E10000895809193028595859585950895809163
:103E200093028770089590919302977081E009F44E
:103E300080E008959091DD0292FB222720F9281757
:103E400051F080FB92F99093DD028091DC02909119
:103E5000DD020C94262008958091DD0282FB8827E4
:103E600080F991E089270C941A1F81E00C941A1FA5
:103E700080E00C941A1F8091B70208959091B702C8
:103E8000892B8093B702089580959091B70289237A
:103E90008093B70208951092B70208959091B602E8
:103EA000892B8093B602089580959091B60289235C
:103EB0008093B60208951092B60208959091B502CB
:103EC000892B8093B502089580959091B50289233E
:103ED0008093B50208951092B502089580919402DE
:103EE000089508950C94711F0C94721F9091DD0237
:103EF00092FD08C090919402981721F0809394024B
:103F00000C94741F089580919402882329F01092D4
:103F1000940280E00C94741F0895E0911701F091D1
:103F200018018091B7028083E0911701F091180188
:103F300090818091B602892B8083E0911701F091E6
:103F4000180190818091B502892B80838091940221
:103F5000882381F0E0911701F09118019081892B5D
:103F6000808380911701909118010E94B1208111E6
:103F70000E94831F80911701909118010C942F14B7
:103F80000C94711F9091DD0292FD10C098E0899F02
:103F900090011124262B209393020E94A41D80914E
:103FA00093028595859585950C94C01F0C94A41D4E
:103FB0001092930280E00C94C01F20919302809590
:103FC000822380939302982F977041F430E0482F1A
:103FD000082E000C550B2417350721F49091DD02B3
:103FE00092FF07C08595859585950E94C51D0C9407
:103FF000D81F089580E008956FEF7FEF80E090E094
:104000000C946B2A80E090E00E94472A21E08A3ECF
:104010009E4F09F020E0822F089582E090E00C94FA
:10402000392A83E090E00C94392ACF9384E090E021
:104030000E94392AC82F82E290E00E94392A2C2F50
:1040400030E0A901582BCA01CF910895CF93C92F11
:10405000682F84E090E00E944D2A6C2F82E290E06D
:10406000CF910C944D2AAB01BC018FE090E00C94F1
:104070005F2AAB01BC0183E190E00C945F2A60E011
:1040800070E0CB010C94392060E070E0CB010E941D
:1040900033200C943F206AEE7EEF80E090E00E9497
:1040A0006B2A60E082E090E00E944D2A60E083E0AD
:1040B00090E00E944D2A10928F021092900210926E
:1040C00091021092920260E084E090E00E944D2AFA
:1040D00060E082E290E00E944D2A60E085E090E09E
:1040E0000E944D2A60E086E090E00E944D2A6FEF2A
:1040F00087E090E00E944D2A40E050E0BA0188E05D
:1041000090E00E945F2A60E08DE090E00E944D2ADE
:1041100040E050E0BA0188E190E00E945F2A60E050
:1041200087E190E00E944D2A40E050E0BA018CE126
:1041300090E00E945F2A60E070E080E290E00E94E0
:104140006B2A40E050E0BA0188E190E00E945F2ACB
:104150000C9444200C944B20682F8EE090E00C943B
:104160004D2AFC01329680912301882331F0809101
:10417000DC0287FF02C09EE101C096E080E0915022
:1041800028F021912223D9F38F5FF9CF0895662378
:1041900051F1209123012223E9F02091DC0227FF35
:1041A00019C0462F4695469546954E31E0F4677006
:1041B00021E030E002C0220F331F6A95E2F7FC01D4
:1041C000E40FF11D828190E02823392381E0232B25
:1041D00069F409C0FC01329608962191621729F012
:1041E000E817F907D1F780E0089581E008959C0170
:1041F000FC0132969FEF80E04191461789F09F3F86
:1042000019F4411101C0982F8F5F8630A9F79F3FA5
:1042100039F0F901E90FF11D97FDFA9562830895D0
:1042200008959C012A5F3F4FFC014281461301C063
:104230001282019682179307B9F70895262F2695C3
:10424000269526952E3168F4FC01E20FF11D67706A
:1042500021E030E001C0220F6A95EAF78281282B25
:1042600022830895262F2695269526952E3170F4C3
:10427000FC01E20FF11D677021E030E001C0220F68
:104280006A95EAF720958281282322830895209158
:104290002301222329F02091DC0227FD0C941E210A
:1042A0000C94F72020912301222329F02091DC0295
:1042B00027FD0C9432210C94112120912301FC0143
:1042C0003296222331F08091DC0287FF02C08EE11A
:1042D00001C086E0DF011D928A95E9F708950895EF
:1042E0000C946F210C946F21CF930E9472210E9435
:1042F000B7060E947021C0E08C2F0E945706892BC0
:1043000029F4CF5FC530C1F780E001C081E0CF91D3
:1043100008950C946F210C94892180911E038430A0
:1043200061F10E948B2180E00E94581180E00E9480
:104330000A041092B90220E488E190E00FB6F894E4
:10434000A895809360000FBE2093600083B7817FA3
:10435000846083BF83B7816083BF7894889583B777
:104360008E7F83BF0FB6F894A89580916000886116
:1043700080936000109260000FBE08950C946F212E
:104380000E944E190E9447100E9423140E940A04A2
:104390000C94BE211F920F920FB60F9211248F938F
:1043A0009F93AF93BF938091B902811113C0809105
:1043B000160390911703A0911803B0911903419629
:1043C000A11DB11D8093160390931703A0931803AA
:1043D000B0931903BF91AF919F918F910F900FBE32
:1043E0000F901F90189582E084BD93E095BD9AEFE1
:1043F00097BD80936E0008952FB7F89480911603AF
:1044000090911703A0911803B09119032FBF08953D
:104410002FB7F894609116037091170380911803D9
:10442000909119032FBF08959C014FB7F894809184
:10443000160390911703A0911803B09119034FBF71
:10444000821B930B089578941F920F920FB60F92D0
:1044500011248F939F93AF93BF93809116039091F4
:104460001703A0911803B09119030196A11DB11D66
:104470008093160390931703A0931803B093190326
:10448000BF91AF919F918F910F900FBE0F901F9092
:10449000189581E08093E00080E28093D80010922C
:1044A000C9008FE19EE40197F1F700C0000087E0AA
:1044B00090EBDC018093270390932803A0932903BA
:1044C000B0932A039CE088E10FB6F894A8958093F6
:1044D00060000FBE90936000FFCF9093C501809362
:1044E000C40108958091DA0208950895CF93DF936F
:1044F00000D01F92CDB7DEB790911E03943019F50E
:1045000089837B836A8382E08093E9008FEF9091B7
:10451000E800815095FD06C095ED9A95F1F70000F1
:104520008111F5CF8091E80085FF0DC040E050E09B
:1045300063E070E0CE0101960E9487248091E8003C
:104540008E778093E8000F900F900F90DF91CF91BE
:104550000895BC0184E00C947622BC0183E00C94A5
:104560007622CF93DF9320912301222339F02091EB
:10457000DC0227FF03C060E222E002C068E021E025
:104580002093E9002FEF3091E800215035FD06C05F
:1045900035ED3A95F1F700002111F5CF2091E800B3
:1045A00025FF1DC0EC0180912301811105C040E071
:1045B00050E068E070E003C070E040E050E0CE0101
:1045C0000E9487248091E8008E778093E80080E243
:1045D000FE01AAEBB2E001900D928A95E1F7DF911E
:1045E000CF91089580911D03811109C00E94182662
:1045F0000E9475268091E20084608093E200089515
:1046000010921D03089508950895089542E061EC05
:1046100081E00E94912542E261EC82E00C949125B8
:1046200080912003833009F460C030F4813071F050
:10463000823009F499C008958A3009F485C08B301E
:1046400009F46BC0893009F0A7C020C080911F0316
:10465000813A09F0A1C08091E800877F8093E8004B
:104660008091230390912403892B21F460E28AEB4B
:1046700092E003C060E080E090E070E00E94D2240D
:104680008091E8008B778093E800089580911F0364
:10469000813209F081C08091230390912403029715
:1046A00008F07AC08091E800877F8093E8008091CD
:1046B000E80082FD05C080911E038111F8CF6CC017
:1046C0002091F3008091F20090E0922B029729F460
:1046D0008091F1008B7F813021F48091F1008093F3
:1046E000DA028091E8008B7753C080911F03813AF2
:1046F00009F052C08091230390912403892B09F083
:104700004BC08091E800877F8093E8008091E800AB
:1047100080FFFCCF8091230136C080911F0381323E
:10472000D9F58091230390912403892BA9F58091D9
:10473000E800877F8093E8000E94C62580912103CE
:10474000809323010C944E1980911F03813221F52F
:104750008091E800877F8093E8000E94C6258091C1
:1047600022038093DB02089580911F03813AA1F414
:104770008091E800877F8093E8008091E80080FFC7
:10478000FCCF8091DB028093F1008091E8008E776E
:104790008093E8000C94C625089584B7877F84BF72
:1047A0000FB6F894A89580916000886180936000AE
:1047B000109260000FBE90E080E80FB6F8948093EE
:1047C0006100909361000FBE0E94A0140E94182601
:1047D0000E9475268091E20084608093E2007894C4
:1047E0000E940A290E94AE1489E191E00E941E14E1
:1047F00080911E038530A9F480911E03853079F4E1
:104800000E948D2180911C038823B1F30E947421A2
:10481000882391F30E9471240E944E19EDCF0E94CB
:10482000C0210E94B8140E94AA14E2CF0C9418244C
:10483000292F332723303105C9F060F421303105A9
:1048400081F02230310509F044C08BE390E022EE84
:1048500034E043C021323105E1F02232310549F123
:1048600038C082E190E02DE135E037C099278130F2
:10487000910549F028F0029761F5ECEAF4E005C0F3
:10488000EEEDF4E002C0EEEBF4E0849190E09F01E5
:1048900024C06115710541F061307105D1F489E0E2
:1048A00090E02DE035E019C089E090E024EF34E09D
:1048B00014C06115710541F06130710551F48DE648
:1048C00090E02FE235E009C080E490E02CE935E08B
:1048D00004C080E090E020E030E0FA0131832083E2
:1048E000089580E189BD82E189BD09B400FEFDCF54
:1048F0008091D8008F7D8093D8008091E000826005
:104900008093E0008091E00081FDFCCF0895CF927C
:10491000DF92EF92FF920F931F93CF93DF93EC01FF
:104920008B017A010E94E525811133C0E114F10465
:1049300039F0F70180819181081B190BC80FD91F2D
:10494000C12CD12C0115110519F18091E80085FDCC
:1049500016C08091E8008E778093E800E114F1049E
:1049600049F0F70180819181C80ED91ED182C082A1
:1049700085E00FC00E94E525882321F30AC08991B4
:104980008093F10001501109FFEFCF1ADF0ADACF4F
:1049900080E0DF91CF911F910F91FF90EF90DF901A
:1049A000CF900895209125033091260326173707CD
:1049B00048F06115710539F42091E8002E772093B5
:1049C000E80001C0B901FC0120E06115710579F131
:1049D00080911E038823F1F18530F1F18091E80088
:1049E00083FD3CC08091E80082FD2EC08091E800EC
:1049F00080FFEBCF2091F3008091F20090E0922BAA
:104A00006115710551F08830910538F4219120939A
:104A1000F100615071090196F3CF21E0089709F088
:104A200020E08091E8008E778093E800CECF2111BE
:104A3000CFCF0AC080911E03882361F0853061F0DA
:104A40008091E80083FD0AC08091E80082FFF2CFE8
:104A500080E0089582E0089583E0089581E008955C
:104A600020912503309126032617370748F061155A
:104A7000710539F42091E8002E772093E80001C0F9
:104A8000B901FC0120E06115710591F180911E03CF
:104A9000882309F440C0853009F43FC08091E800C4
:104AA00083FD3DC08091E80082FD2FC08091E80029
:104AB00080FFE9CF2091F3008091F20090E0922BEB
:104AC0006115710559F08830910540F424912093C7
:104AD000F1003196615071090196F2CF21E00897FB
:104AE00009F020E08091E8008E778093E800CBCF3A
:104AF0002111CCCF0AC080911E03882361F085303C
:104B000061F08091E80083FD0AC08091E80082FF97
:104B1000F2CF80E0089582E0089583E0089581E077
:104B20000895982F973068F59093E900981739F019
:104B30007091EC002091ED005091F00003C0242F03
:104B4000762F50E021FD02C09F5FECCF3091EB004B
:104B50003E7F3093EB003091ED003D7F3093ED00D0
:104B60003091EB0031603093EB007093EC002093B8
:104B7000ED005093F0002091EE0027FDE5CF80E09E
:104B800008958F708093E90081E0089580911F035C
:104B900087FF11C08091E80082FD05C080911E034F
:104BA0008111F8CF11C08091E8008B770BC0809104
:104BB0001E03882349F08091E80080FFF8CF8091A0
:104BC000E8008E778093E80008952091E40030910A
:104BD000E50095E64091EC00842F817040FF23C0F2
:104BE0008091E80080FD1DC080911E03882399F00C
:104BF000853099F08091EB0085FD11C04091E40073
:104C00005091E5002417350729F3915011F09A01CE
:104C1000E1CF84E0089582E0089583E0089581E083
:104C2000089580E008954091E80042FFDDCF0895A7
:104C30000E9486260E948E26E0EEF0E08081816050
:104C40008083E8EDF0E080818F77808319BCA7ED49
:104C5000B0E08C918E7F8C9380818F7E80831092C8
:104C60001D0308950F931F93CF93DF930E94862611
:104C70000E948E26C8EDD0E088818F778883888156
:104C80008068888388818F7D888319BC10921E0379
:104C900010921A0310921C0310921B0300EE10E0F6
:104CA000F80180818B7F808388818160888342E0E6
:104CB00060E080E00E949125E1EEF0E080818E7F4F
:104CC0008083E2EEF0E08081816080838081886073
:104CD0008083F80180818E7F8083888180618883D2
:104CE000DF91CF911F910F910895E8EDF0E0808161
:104CF0008F7E8083E7EDF0E080818160808384E0B7
:104D000082BF81E080931D030C943226E8EDF0E031
:104D100080818E7F80831092E20008951092DA00E5
:104D20001092E10008951F920F920FB60F92112476
:104D30002F933F934F935F936F937F938F939F93A3
:104D4000AF93BF93EF93FF938091E10082FF0BC07D
:104D50008091E20082FF07C08091E1008B7F809309
:104D6000E1000E9409298091DA0080FF1FC0809134
:104D7000D80080FF1BC08091DA008E7F8093DA001C
:104D80008091D90080FF0DC080E189BD82E189BD9D
:104D900009B400FEFDCF81E080931E030E94F22241
:104DA00005C019BC10921E030E9400238091E100EF
:104DB00080FF19C08091E20080FF15C08091E20061
:104DC0008E7F8093E2008091E20080618093E20018
:104DD0008091D80080628093D80019BC85E08093D0
:104DE0001E030E9404238091E10084FF30C0809163
:104DF000E20084FF2CC080E189BD82E189BD09B455
:104E000000FEFDCF8091D8008F7D8093D8008091E7
:104E1000E1008F7E8093E1008091E2008F7E80939D
:104E2000E2008091E20081608093E20080911A03A9
:104E3000882311F084E007C08091E30087FD02C061
:104E400081E001C083E080931E030E9405238091CE
:104E5000E10083FF29C08091E20083FF25C080919B
:104E6000E100877F8093E10082E080931E0310922F
:104E70001A038091E1008E7F8093E1008091E2002F
:104E80008E7F8093E2008091E20080618093E20057
:104E900042E060E080E00E9491258091F00088600F
:104EA0008093F0000E940323FF91EF91BF91AF9197
:104EB0009F918F917F916F915F914F913F912F9132
:104EC0000F900FBE0F901F9018951F920F920FB664
:104ED0000F9211242F933F934F935F936F937F9380
:104EE0008F939F93AF93BF93CF93DF93EF93FF93F2
:104EF000C091E900CF708091EC00D82FD17080FD77
:104F0000D0E81092E9008091F000877F8093F00054
:104F100078940E94A9271092E9008091F00088609F
:104F20008093F000CD2BCF70C093E900FF91EF91FB
:104F3000DF91CF91BF91AF919F918F917F916F91B1
:104F40005F914F913F912F910F900FBE0F901F9047
:104F500018951F93CF93DF93CDB7DEB7AA970FB6FF
:104F6000F894DEBF0FBECDBFEFE1F3E08091F1001A
:104F7000819323E0E732F207C9F70E941023809162
:104F8000E80083FF2EC180911F0390912003492FD9
:104F900050E04A30510508F024C1FA01ED54FF4FAA
:104FA0000C949929803821F0823809F01AC108C080
:104FB00080911B0390911C03992389F082600FC09C
:104FC000809123038F70873008F00BC18093E90034
:104FD0008091EB0085FB882780F91092E900909181
:104FE000E800977F9093E8008093F1001092F10021
:104FF000D1C0282F2D7F09F0F4C0882319F082300A
:1050000061F0EFC080912103813009F0EAC0933054
:1050100009F080E080931C032EC080912103811150
:105020002AC0809123038F702FEF280F263008F0BD
:10503000D8C08093E9002091EB0020FF1CC0933082
:1050400021F48091EB00806214C09091EB0090619C
:105050009093EB0021E030E0A90102C0440F551FFE
:105060008A95E2F74093EA001092EA008091EB0003
:1050700088608093EB001092E9008091E800877FC0
:105080008093E8000E94C625ACC08111AAC010918F
:1050900021031F778091E3008078812B8093E300C8
:1050A0008091E800877F8093E8000E94C625809168
:1050B000E80080FFFCCF8091E30080688093E300EC
:1050C000111102C082E001C083E080931E0389C0F9
:1050D0008058823008F085C080912103909122038E
:1050E0008C3D53E0950779F583E08A838AE28983D2
:1050F0004FB7F894DE01139620E03EE051E2E32F33
:10510000F0E050935700E49120FF03C0E295EF7068
:105110003F5FEF708E2F90E0EA3010F0C79601C02D
:10512000C0968D939D932F5F243149F74FBF809197
:10513000E800877F8093E8006AE270E0CE01019684
:105140000E94D22416C06091230370912403AE0103
:105150004F5F5F4F0E941624BC01892B09F441C0A8
:105160009091E800977F9093E80089819A810E944E
:1051700030258091E8008B778093E80032C080383A
:1051800081F58091E800877F8093E80080911A0381
:105190008093F1008091E8008E7772CF811121C059
:1051A000809121039091220399270297D4F4809152
:1051B000E800877F8093E8008091210380931A03A1
:1051C0000E94C62580911A03811106C08091E300D8
:1051D00087FD02C081E001C084E080931E030E942D
:1051E00006238091E80083FF0AC08091E800877F52
:1051F0008093E8008091EB0080628093EB00AA9698
:105200000FB6F894DEBF0FBECDBFDF91CF911F91D7
:1052100008950895CF9380911E038823A1F0C09133
:10522000E900CF709091EC00892F817090FD80E8AB
:10523000C82B1092E9008091E80083FD0E94A92705
:10524000CF70C093E900CF910895DB018F939F93B6
:105250000E94BD29BF91AF91A29F800D911DA39F78
:10526000900DB29F900D11240895991B79E004C010
:10527000991F961708F0961B881F7A95C9F7809595
:10528000089587FB082E062687FD819567FD6195A9
:105290000E9435290EF4919507FC81950895AA1B6B
:1052A000BB1B51E107C0AA1FBB1FA617B70710F011
:1052B000A61BB70B881F991F5A95A9F78095909543
:1052C000BC01CD01089597FB072E16F4009407D07A
:1052D00077FD09D00E944F2907FC05D03EF4909538
:1052E00081959F4F0895709561957F4F0895A1E234
:1052F0001A2EAA1BBB1BFD010DC0AA1FBB1FEE1F50
:10530000FF1FA217B307E407F50720F0A21BB30B9A
:10531000E40BF50B661F771F881F991F1A9469F716
:1053200060957095809590959B01AC01BD01CF0172
:105330000895EE0FFF1F0590F491E02D09940E944F
:10534000A729332312F48A1B9B0B0C94B829A29F24
:10535000B001B39FC001A39F700D811D1124911D49
:10536000B29F700D811D1124911D08950E94A729DF
:10537000B7FF0895821B930B08950E94A729A59F4C
:10538000900DB49F900DA49F800D911D1124089540
:10539000B7FF0C94BD290E94BD29821B930B089571
:1053A0008F929F92AF92BF92CF92DF92EF92FF9235
:1053B000CF93DF93EC01688179818A819B816115AC
:1053C00071058105910521F464E279ED8BE597E0A3
:1053D0002DE133EF41E050E00E94812A49015A015A
:1053E0009B01AC01A7EAB1E40E94BD296B017C01DD
:1053F000ACEEB4EFA50194010E94CB29DC01CB01F6
:105400008C0D9D1DAE1DBF1DB7FF03C00197A109E7
:10541000B04888839983AA83BB839F77DF91CF911C
:10542000FF90EF90DF90CF90BF90AF909F908F90C4
:1054300008950E94D029089580E091E00E94D0292B
:105440000895A0E0B0E08093000190930101A09343
:105450000201B09303010895FC014150504030F027
:1054600001900616D1F73197CF0108958827992723
:105470000895F999FECF92BD81BDF89A992780B51C
:105480000895A6E1B0E044E050E00C94732AA8E14E
:10549000B0E042E050E00C94732A262FF999FECF39
:1054A00092BD81BDF89A019700B4021639F01FBA77
:1054B00020BD0FB6F894FA9AF99A0FBE0895039694
:1054C000272F0E944E2A0E944D2A252F0E944E2AE5
:1054D000242F0C944E2A0196272F0E944E2A0C94BA
:1054E0004D2ADC01CB01FC01F999FECF06C0F2BDCB
:1054F000E1BDF89A319600B40D9241505040B8F792
:105500000895052E97FB1EF400940E94982A57FDDB
:1055100007D00E94772907FC03D04EF40C94982AF8
:1055200050954095309521953F4F4F4F5F4F0895CF
:1055300090958095709561957F4F8F4F9F4F0895FF
:04554000F894FFCF0D
:1055440001000000010102000A000A0A01191A1BE5
:105554001C1D1E1F20212295027222B1227522AD2C
:1055640022A92201E200E900EA00B500B600B70072
:10557400CD008301CC008A0192019401210223020F
:1055840024022502260227022A02B300B4006F0077
:105594007000818283F0F1C6676636943132353407
:1055A40097963390919293950001020202020606A7
:1055B400060909090909090F0F0F0F0F0F15151512
:1055C400181919191919191919191923242525250F
:1055D400252525E200E900EA00B500B600B700CDB4
:1055E400008301CC008A0192019401210223022448
:1055F400022502260227022A02B300B4006F0070BB
:04560400008182831C
:00000001FF
